:020000040800F2
:10000000D00600209D0100081F190008AF0B000852
:1000100015180008ED070008812F000800000000F7
:100020000000000000000000000000000D27000894
:10003000250800080000000039210008B50100086B
:10004000B7010008B7010008B7010008B7010008B0
:10005000B7010008B7010008B7010008B7010008A0
:10006000B7010008B7010008B7010008B701000890
:10007000B7010008B7010008B7010008B701000880
:10008000B7010008B7010008B7010008B701000870
:10009000B7010008B7010008B7010008B701000860
:1000A000B7010008B7010008B7010008B701000850
:1000B000692A0008652B0008B7010008B70100088D
:1000C000B7010008B7010008B7010008B701000830
:1000D000B7010008812D0008B7010008B70100082A
:1000E000B7010008B7010008B7010008B701000810
:1000F000B7010008B7010008B7010008B701000800
:10010000B7010008B7010008B7010008B7010008EF
:10011000B7010008B7010008B7010008B7010008DF
:10012000B7010008B7010008B7010008B7010008CF
:10013000B7010008B7010008B7010008B7010008BF
:10014000B7010008B7010008B7010008B7010008AF
:10015000B7010008B7010008B7010008B70100089F
:10016000B7010008B7010008B7010008B70100088F
:10017000B7010008B7010008B7010008B70100087F
:10018000B7010008B7010008DFF80CD000F0C2FA90
:1001900000480047DD360008D006002006488047AA
:1001A00006480047FEE7FEE7FEE7FEE7FEE7FEE75C
:1001B000FEE7FEE7FEE7FEE7AD270008890100083D
:1001C0002DE9F04D81EA030404F0004B21F00045D5
:1001D00014464FF0000A23F0004150EA050220D0F7
:1001E00054EA01021DD0C5F30A570246C5F31303B2
:1001F000C1F31300C1F30A5640F4801543F4801391
:10020000A7EB0608101BD64608F2FD3873EB050075
:1002100002D308F1010801E092185B41B8F1000F28
:1002200003DA00200146BDE8F08D00204FF4801174
:10023000064684460EE0171B73EB050705D3121B19
:1002400063EB050306434CEA010C49084FEA300012
:1002500092185B4150EA0107EDD152EA030012D037
:1002600082EA040083EA0501084305D0101BAB4174
:1002700006D20122002306E000224FF0004302E0F4
:100280006FF0010253101AEB06004CEB085110EB13
:100290000A0041EB0B01BDE8F04D00F073B80EB55C
:1002A00040F2334102910021CDE900110A460B468C
:1002B00000F077F803B000BD00F0004230F00040DD
:1002C0000AD0C10D01F56071C0F3160042EA015178
:1002D000C20840071143704700200146704701F0F3
:1002E000004330B421F0004150EA010206D00A0D6B
:1002F000A2F56072C1F31301002A02DC30BC0020B9
:100300007047440F44EAC104C100E01830BC00EB60
:10031000C250AFF300800029A8BF7047401C4900BD
:1003200008BF20F00100704710B4B0FA80FC00FA5A
:100330000CF050EA010404BF10BC704749B1CCF185
:10034000200421FA04F411FA0CF118BF0121214311
:100350000843A3EB0C01CB1D4FEA00614FEA1020CC
:1003600042BF002010BC704700EBC350104400296E
:10037000A4BF10BC7047401C490008BF20F001001A
:1003800010BC704710B5141E73F1000408DA401C4D
:1003900041F1000192185B411A4301D120F00100A4
:1003A00010BD2DE9F04D92469B4611B1B1FA81F294
:1003B00002E0B0FA80F22032904600F0BDF9044627
:1003C0000F4640EA0A0041EA0B0153465A460843E9
:1003D00013D0114653EA010019D0C8F1400250462B
:1003E00000F0B9F905460E4650465946424600F01F
:1003F000A3F9084305D0012004E020463946BDE8B2
:10040000F08D0020054346EAE0762C4337430A98F6
:100410006305E40AA0EB08000022FD0A44EA475401
:100420000A3002D500200146E9E7010510196941AB
:10043000DDE9084500196941BDE8F04DA2E72DE965
:10044000FE4F804681EA0300C00F0C46009021F069
:10045000004123F00045B8EB0200A94105D2404617
:10046000214690461C460B46024623F000401043AE
:1004700047D0270DC7F30A00C3F30A510290401A70
:10048000019040286BDAC3F3130040F4801B0098FE
:10049000924620B10023D2EB030A63EB0B0B0198C9
:1004A0005946C0F14002504600F046F906460D4656
:1004B00050465946019A00F05EF910EB0800614180
:1004C000002487EA115284EAE7731A4340D0009A65
:1004D00062B3019A012A4FEA075215DC001B61EB57
:1004E00002014FF0004202EA0752CDE90042001C2F
:1004F00041F5801132462B46FFF753FF03B0BDE8AC
:10050000F08F40462146F9E7001B61EB0201001C19
:1005100041F5801300185B412018A2F5001747EB46
:10052000030140EAD570B6196D4111E06D084FEA3C
:10053000360645EAC0754FEA0752001B61EB02011F
:10054000001C41F5801149084FEA30000019514163
:1005500032462B4603B0BDE8F04FFFF713BF0098BB
:10056000012240000023D0EB020263EBE07300980D
:1005700021464FEAE074B8EB000061EB0401E9E7C3
:1005800083F000435BE781F0004158E72DE9FE4F1F
:1005900081EA030404F0004421F0004100944FF08C
:1005A000000B23F0004350EA01045ED052EA03043A
:1005B0005BD0C3F30A54C1F30A552C44A4F2F334BC
:1005C0000194A0FB0254C1F3130141F48011C3F361
:1005D000130343F4801301FB024400FB034E840A1F
:1005E000970A44EA815447EA8357A4FB07680295B7
:1005F0008D0A05FB07854FEA932C04FB0C54270555
:10060000029D4FEA065847EA1637B5EB08056EEB30
:10061000070C870E920E47EA811742EA8312A7FB66
:100620000201B6EB0B0164EB00042B0D43EA0C3323
:100630005E1844EB1C50DA465146E7FB0201C5F355
:1006400013044FEA0B3343EA14534FEA0432019C7C
:1006500043EA0603A4F10C040294009CCDE900B423
:10066000FFF79FFE03B0BDE8F08F00200146F9E7D9
:100670002DE9F04D00231A461B1A8A4103DB0020A6
:100680000146BDE8F08DC1F30A52C1F3130141F4F4
:1006900080154FF0000BD10702D100186D41521E9A
:1006A0000027044640F2FF11384601EB620A3E463D
:1006B0008046024600204FF4801100F04CF8C21929
:1006C0007141BB1846EB0100B4EB030C75EB000C59
:1006D00004D3E41A65EB000517460E46241908F109
:1006E00001006D4180463428E3DDF91946EB060030
:1006F000091BA84103D24FF0FF32134601E000224C
:1007000013461BEB070046EB0A51BDE8F04DFFF71F
:1007100039BE0000064C074D06E0E06840F00103DA
:1007200094E8070098471034AC42F6D3FFF730FD49
:10073000A0370008C0370008202A04DB203A00FA5E
:1007400002F1002070479140C2F1200320FA03F328
:10075000194390407047202A04DB203A21FA02F026
:100760000021704721FA02F3D040C2F120029140EB
:10077000084319467047202A06DBCB17203A41FA76
:1007800002F043EAE07306E041FA02F3D040C2F11E
:100790002002914008431946704700001FB502F03F
:1007A000B3F900F02BF800F0A7FA00F011F901F00E
:1007B0006FF901F03BFC4FF4165002F0F5FA0848CF
:1007C00001F0BCFC074BD3E901021968DB6801ACFE
:1007D0000DC4009104489DE81E001EC01FBD00000E
:1007E00020010020EC3600082400002000BFFEE7B6
:1007F0000148406870470000001000E007480068AA
:1008000040F08070054908600020054948600846AE
:10081000006840F00100086070470000FCED00E057
:10082000001000E07047000010B504460F4801F0CA
:10083000CFFE0E4840680E49B0FBF1F060434FF028
:10084000E0214861002088610846006940F0050009
:10085000086100BF4FF0E020006900F480300028FC
:10086000F8D004204FF0E021086110BDB402002050
:1008700040420F001648006840F00100144908602B
:100880001448006820F47F00124908600846006898
:1008900040F42A0008600846406820F47060486010
:1008A0000846806820F47F0088600846806840F42D
:1008B0002A0088600846406A010C09040548416224
:1008C000406A41F211110843024948627047000032
:1008D0003038024000000240F0B50A4600210023F3
:1008E000002400BF3DE0012505FA01F3156805EA83
:1008F00003049C4234D105684F000326BE40B54333
:10090000056015794E00B5400668354305601579D8
:10091000012D02D01579022D16D185684F000326CE
:10092000BE40B543856055794E00B5408668354375
:100930008560456801268E40B543456045689679D7
:100940008E40B6B235434560C5684F000326BE40B1
:10095000B543C560D5794E00B540C6683543C5601E
:10096000491C1029BFD3F0BDF0B5002300244D076A
:10097000ED0E02FA05F3CE1000F1200555F82650D1
:100980004E07F70E0F26BE40B543CF1000F12006EC
:1009900046F82750CE1000F1200555F8265045EABC
:1009A0000304CE1000F1200545F82640F0BD0246B4
:1009B000002013690B400BB1012000E000207047BC
:1009C000816170470AB1816101E00B048361704766
:1009D00010B500F021FF00F0E6F900F0CDF800F0CE
:1009E00004FA10BD10B5044600F080FFEE2000F0C0
:1009F00068FF00F031FF204600F063FF00F02CFF9D
:100A000000F082FF10BD70B504460D4600F06EFF89
:100A1000204600F056FF00F01FFF284600F051FF6F
:100A200000F01AFF00F062FF44F0010000F049FFFF
:100A300000F012FF00F01FFF0646012000F035FF16
:100A400000F062FF304670BD70B506460C46154694
:100A500000F04CFF304600F034FF00F0FDFE204671
:100A600000F02FFF00F0F8FE284600F02AFF00F00B
:100A7000F3FE00F049FF70BD70B52DED068B044606
:100A80000D46B0EE408A94ED000AD5ED000A30EE36
:100A9000600AF0EE408A94ED010AD5ED010A30EECD
:100AA000600AF0EE409A94ED020AD5ED020A30EEAB
:100AB000600AB0EE409A9FED170AB0EE40AAB0EE81
:100AC000481ADFED140A1448B0EE680A02F0E2FD9D
:100AD000F0EE408AB0EE481ADFED0E0A0F48B0EE95
:100AE000690A02F0D7FDF0EE409AB0EE481ADFED49
:100AF000090A0B48B0EE490A02F0CCFDB0EE409A6C
:100B0000C4ED008AC4ED019A84ED029ABDEC068B17
:100B100070BD0000000048428000002084000020DA
:100B20008800002070B5044604213C20FFF76BFFCD
:100B3000054603213C20FFF766FF45EA002000B28E
:100B4000208008213C20FFF75EFF054607213C205E
:100B5000FFF759FF45EA002000B2608006213C20E3
:100B6000FFF751FF054605213C20FFF74CFF45EA02
:100B7000002000B2A08070BD10B502223721D02025
:100B8000FFF762FF00226A21D020FFF75DFF5022AD
:100B900000213C20FFF758FF202201213C20FFF7D5
:100BA00053FF002202213C20FFF74EFF10BD00BF83
:100BB000FEE7000070B52DED048B04460D46F0EE07
:100BC000409AB5F9060000EE100AB8EEC00ADFED53
:100BD000470A80EE201A464880ED001AB5F9080051
:100BE00000EE100AB8EEC00ADFED400A80EE201ACF
:100BF0003F4880ED011AB5F90A0000EE100AB8EE80
:100C0000C00ADFED3A0A80EE201A394880ED021A58
:100C1000B0EE690A3749FFF72FFF354890ED000A1B
:100C200084ED570A90ED010A84ED580A90ED020A0E
:100C300084ED590A94ED5A1AF0EE410A94ED571AD0
:100C4000B0EE410AB0EE691A04F1A80001F030F8E4
:100C5000B0EE408A94ED5B1AF0EE410A94ED581A1A
:100C6000B0EE410AB0EE691A04F1E00001F020F89C
:100C7000F0EE408A94ED5C1AF0EE410A94ED591AB8
:100C8000B0EE410AB0EE691A04F58C7001F010F86C
:100C9000B0EE409A94ED600A30EE080A30EE680A31
:100CA00030EE490A84ED610A94ED600A30EE080ADC
:100CB00030EE280A30EE090A84ED620A94ED600AEB
:100CC00030EE480A30EE280A30EE490A84ED630A15
:100CD00094ED600A30EE480A30EE680A30EE090AF8
:100CE00084ED640ABDEC048B70BD000000008342FB
:100CF000C40200207400002000B5FFF7BBFD01F026
:100D00001BFE00BD70B504463C21D020FFF77BFEE2
:100D100005463B21D020FFF776FE45EA002000B2D1
:100D200020803E21D020FFF76EFE05463D21D020D9
:100D3000FFF769FE45EA002000B260804021D02024
:100D4000FFF761FE05463F21D020FFF75CFE45EA34
:100D5000002000B2A0804421D020FFF754FE0546B9
:100D60004321D020FFF74FFE45EA002000B2E0808B
:100D70004621D020FFF747FE05464521D020FFF74A
:100D800042FE45EA002000B220814821D020FFF732
:100D90003AFE05464721D020FFF735FE45EA002000
:100DA00000B2608170BD10B500F036FD01226B21EC
:100DB000D020FFF749FE00226C21D020FFF744FE2F
:100DC00009221921D020FFF73FFE06221A21D02048
:100DD000FFF73AFE08221B21D020FFF735FE08223C
:100DE0001C21D020FFF730FE10BD10B51E20FFF7EC
:100DF000F9FD10BD70B52DED108BAAB005460E465D
:100E00001446F0EE40AA94ED000AF0EE409A94EDFC
:100E1000010AF0EE408A94ED020AB0EE408A94EDA9
:100E2000030AB0EE409AB5F9000000EE100AB8EEE1
:100E3000C00A8DED290AB5F9020000EE100AB8EEDD
:100E4000C00A8DED280AB5F9040000EE100AB8EECC
:100E5000C00A8DED270AB5F9060000EE100AB8EEBB
:100E6000C00AB0EE40CAB5F9080000EE100AB8EEAC
:100E7000C00AF0EE40CAB5F90A0000EE100AB8EE5A
:100E8000C00AB0EE40DAB6F9000000EE100AB8EE83
:100E9000C00AF0EE40DAB6F9020000EE100AB8EE31
:100EA000C00AB0EE40BAB6F9040000EE100AB8EE7F
:100EB000C00AF0EE40BA9DED290A20EE000ADDEDF1
:100EC000280A00EEA00ADDED270A00EEA00A10EEC7
:100ED000101A0846FFF7F0F9CDE900019DED000B6F
:100EE00002F0CEFA8DED020B9DED020B51EC100BD2
:100EF000FFF7F5F90AEE100A9DED290AC0EE0A0A7D
:100F0000CDED290A9DED280AC0EE0A0ACDED280A8A
:100F10009DED270AC0EE0A0ACDED270A9FEDFE0AD5
:100F20003DEEC00ADFEDFD0A20EE200AF0EE40DAC9
:100F30009FEDFB0A3BEE400ADFEDFA0A20EE200AA5
:100F4000B0EE40BA9FEDF80A3BEEC00ADFEDF70ABB
:100F500020EE200AF0EE40BA2DEEAD0A0BEE0B0AA1
:100F60000BEEAB0A10EE101A0846FFF7A5F9CDE913
:100F700000019DED000B02F083FA8DED020B9DED5B
:100F8000020B51EC100BFFF7AAF90AEE100A8DEED6
:100F90008A0AF0EE40DA8BEE0A0AB0EE40BA8BEE27
:100FA0008A0AF0EE40BA9FEDE20ACCEE000AB0EEFB
:100FB00060CA9FEDDF0ACCEE800AF0EE60CA9FEDBA
:100FC000DC0ACDEE000AB0EE60DA9FEDDA0A2CEE14
:100FD000000AB0EE40CA9FEDD70A2CEE800AF0EE70
:100FE00040CA9FEDD40A2DEE000AB0EE40DA9FED24
:100FF000D20AF0EE40FA9FEDD00AB0EE40EA9FED43
:10100000CE0AF0EE40EA9FEDCC0AB0EE40FA68EE70
:10101000890A49EEC80A9DED290AB0EE001A11EEC0
:10102000200A8DED260A69EEA80A48EE090A9DED10
:10103000280AB0EE001A11EE200A8DED250AB6EE50
:10104000000A08EEE80AF0EE400A48EE480A9DED74
:10105000270AB0EE001A11EE200A8DED240AB6EE32
:10106000000A08EE480A09EE490AB448D0ED000A21
:10107000B0EE001A60EE810A20EE200A68EE890ABE
:1010800049EEC80AAE4890ED001AF0EE001A21EEC3
:10109000211A01EE200A30EE6D0A8DED230A28EEAA
:1010A000880A09EEC90AA548D0ED000AB0EE001A78
:1010B00060EE810A20EE200A69EEA80A48EE090ACD
:1010C0009F4890ED001AF0EE001A21EE211A01EE71
:1010D000200A30EE4B0A8DED220A29EE880A08EE2E
:1010E000890A9648D0ED000AB0EE001A60EE810A37
:1010F00060EE200AB6EE000A08EEE80A08EE480A9A
:101100008F4890ED001AF0EE001A21EE211A41EE00
:10111000000A30EEEB0A8DED210AB8EE000A28EE47
:10112000000A8DED200AB0EE000A29EE000A8DEDCE
:101130001F0AB8EE000A29EE800A8DED1E0AB0EEF5
:10114000000A28EE800A8DED1D0AB0EE000A28EE96
:10115000800A8DED1C0AB0EE000A29EE800A8DEDA2
:101160001B0AB0EE000A29EE000A8DED1A0AB0EE55
:10117000000A28EE000A8DED190AB9EE000A28EEE1
:10118000800A8DED180AB9EE000A28EE000A8DEDEE
:10119000170A90ED000AF8EE000A20EE200A20EE71
:1011A000080A8DED160A90ED000AF0EE000A20EE16
:1011B000200A20EE090A8DED150A90ED000AF8EEDE
:1011C000000A20EE200A20EE290A5C48D0ED000A31
:1011D000B1EE001A60EE810A00EEC80A8DED140A25
:1011E000574890ED000AF0EE000A20EE200A20EEAB
:1011F000280A5248D0ED000AB1EE001A60EE810ACA
:1012000000EEC90A8DED130A90ED000AF8EE000A0F
:1012100020EE200A20EE090A4948D0ED000AB0EE7F
:10122000001A60EE810A00EEA80A8DED120A43480A
:1012300090ED000AF0EE000A20EE200A20EE080AE7
:101240003F48D0ED000AB0EE001A60EE810A00EED1
:10125000A90A8DED110A394890ED000AF0EE000A56
:1012600020EE200A20EE280A3548D0ED000AB0EE24
:10127000001A60EE810A00EE890A8DED100A2F48EF
:1012800090ED000AF8EE000A20EE200A20EE290A6E
:101290002B48D0ED000AB0EE001A60EE810A00EE95
:1012A000880A8DED0F0A254890ED000AF0EE000A3D
:1012B00020EE200A20EE080A8DED0E0A90ED000ABD
:1012C000F0EE000A20EE200A20EE090A1C48D0EDBC
:1012D000000AB1EE001A60EE810A00EEE80A8DED18
:1012E0000D0A164890ED000AF0EE000A20EE200AE2
:1012F00020EE290A1248D0ED000AB1EE001A60EE85
:10130000810A00EEC80A8DED0C0A0C4890ED000A27
:10131000F0EE000A16E0000000000842FFB27B3F3A
:1013200000004CC21FD7863F0000D2C2F33C783F7A
:101330000000834235FA8E3C000000005C00002073
:101340006000002020EE200A60EE280ACDED0B0A96
:101350009DED200ADDED260A60EE200A9DED1C0AB7
:101360009DED251A40EE010A9DED160A9DED231A0A
:1013700040EE010A9DED120A9DED221A40EE010A8F
:101380009DED0E0A9DED211A40EE010AF0EE60FA85
:101390009DED1F0ADDED260A60EE200A9DED1B1A69
:1013A0009DED250A41EE000A9DED180A9DED241AD7
:1013B00040EE010A9DED150A9DED231A40EE010A4B
:1013C0009DED110A9DED221A40EE010A9DED0D0AD8
:1013D0009DED211A40EE010AB0EE60EA9DED1E0A75
:1013E000DDED260A20EE200A9DED1A1ADDED250A14
:1013F00001EE200ADDED170A9DED241A00EE810AA8
:10140000DDED140A9DED231A00EE810ADDED100AD0
:101410009DED221A00EE810ADDED0C0A9DED211AE8
:1014200000EE810AF0EE40EA9DED1D0ADDED260A90
:1014300020EE200ADDED190A9DED251A00EE810A45
:10144000DDED130A9DED231A00EE810ADDED0F0A92
:101450009DED221A00EE810ADDED0B0A9DED211AA9
:1014600000EE810AB0EE40FA2FEEAF0A0EEE0E0A41
:101470000EEEAE0A0FEE0F0A10EE101A0846FEF737
:101480001BFFCDE900019DED000B01F0F9FF8DED93
:10149000020B9DED020B51EC100BFEF720FF0AEE44
:1014A000100AB7EE000A2AEE000AD14880ED000AC1
:1014B00090ED000ADFEDCF0AB4EEE00AF1EE10FA8B
:1014C00003D29FEDCD0A80ED000A8FEE8A0AF0EE7E
:1014D00040FA8EEE0A0AB0EE40EA8EEE8A0AF0EE8C
:1014E00040EA8FEE0A0AB0EE40FAB1EE680A20EE4A
:1014F0002F0A09EE8E0A09EE2E0A08EE4F0AF0EEC8
:10150000000A60EE200ABD4890ED000A00EEAA0A2B
:1015100080ED000AB1EE480A20EE2F0A09EE4E0ACD
:1015200009EEAE0A08EE8F0AF0EE000A60EE200A1D
:10153000B34890ED000A00EEAA0A80ED000AB1EE71
:10154000490A20EE2F0A08EE0E0A08EEEE0A09EE0E
:101550008F0AF0EE000A60EE200AAA4890ED000A19
:1015600000EEAA0A80ED000AA448D0ED000A9FED23
:10157000A61AB0EE4C0A01EE600AB0EE40CAA048CE
:10158000D0ED000A9FEDA01AB0EE6C0A01EE600AE1
:10159000F0EE40CA9B48D0ED000A9FED9B1AB0EEDA
:1015A0004D0A01EE600AB0EE40DAB1EE680A20EEB4
:1015B0000C0A08EE6C0A09EE4D0AF6EE000A20EE5F
:1015C000200A8DED0A0A29EE8C0A08EE0D0A09EEB2
:1015D0006C0AF6EE000A20EE200A8DED090A29EECB
:1015E000AC0A08EECD0A09EE0C0AF6EE000A20EE6F
:1015F000200A8DED080A29EE8D0A08EEAC0A08EEE5
:101600004C0AF6EE000A20EE200A8DED070A9DED49
:101610000A0A7748D0ED000A00EEEF0AF0EE690AF8
:101620004AEE800AF0EE609A9DED090AD0ED000ABC
:1016300000EECE0AF0EE680A4AEE800AF0EE608A0A
:101640009DED080AD0ED000A00EEEE0AF0EE480A21
:101650004AEE800AB0EE608A9DED070AD0ED000ADE
:1016600000EECF0AF0EE490A4AEE800AB0EE609A28
:1016700029EEA90A08EEA80A08EE080A09EE090AE6
:1016800010EE101A0846FEF717FECDE900019DED99
:10169000000B01F0F5FE8DED020B9DED020B51EC00
:1016A000100BFEF71CFE0AEE100A89EE8A0A84ED82
:1016B000000A88EE8A0A84ED010A88EE0A0A84ED9F
:1016C000020A89EE0A0A84ED030A29EEA90A08EE45
:1016D000A80AF6EE000A30EE600AF0EE000A6DEE9F
:1016E000A00A20EE200A68EE880A49EEC90AB0EE88
:1016F000001A2BEE011A01EE200A68EE890A49EE63
:10170000880AB0EE001A2BEE811A01EE200A8DED48
:10171000060A28EE880A09EE890AF0EE000A6DEE44
:10172000A00A20EE200A69EEA90A48EE080AB6EEE1
:10173000001A70EEC10AB0EE001A2BEE011A01EE8B
:10174000200A68EE090A49EEE80AB0EE001A2BEE0C
:10175000811A01EE200A8DED050A28EE890A09EEAC
:10176000C80AF0EE000A6DEEA00A20EE200A68EE2C
:10177000090A49EEA80AB0EE001A2BEE011A01EE92
:10178000200A69EEA90A49EE090AB6EE001A70EEBF
:10179000C10AB0EE001A2BEE811A01EE200A8DED7F
:1017A000040A9DED060A60EE000A9DED050A40EE72
:1017B000000A10EE901A0846FEF77EFDCDE9000102
:1017C0009DED000B01F05CFE8DED020B9DED020B1B
:1017D00051EC100BFEF783FD0C4908609DED040AE7
:1017E0000B4880ED000A2AB0BDEC108B70BD0000E4
:1017F000700000200AD7A33B6F12833A64000020D8
:10180000680000206C000020CDCC4C3D5C00002026
:101810006000002000BFFEE71CB50121022000F09F
:10182000B7FE01208DF804008DF806004FF48160AA
:10183000009000208DF8070001208DF80500694612
:101840000448FFF749F84FF481610248FFF7B8F800
:101850001CBD00000004024010B5012000F048FF4C
:10186000012000F029FF00F035FF0446002000F0C1
:1018700023FF204610BD70B50025012000F038FF81
:1018800000240EE0012000F017FF00F023FF0128E4
:1018900002D1802020410543002000F00DFF601C94
:1018A000C4B2082CEEDB284670BD10B504462046B5
:1018B00000F01EFF012000F0FFFE002000F0FCFE03
:1018C00010BD70B5054600240DE08021214101EADC
:1018D000050000F00DFF012000F0EEFE002000F0FA
:1018E000EBFE601CC4B2082CEFDB70BD10B501200C
:1018F00000F0FEFE012000F0DFFE002000F0F8FE08
:10190000002000F0D9FE10BD10B5002000F0F0FE60
:10191000012000F0D1FE012000F0EAFE10BD70476A
:1019200070B5002100230F22C4781CB3174C246823
:1019300004F4E064C4F5E064C4F30721C1F10404D5
:10194000E3B20A4144789C40E1B2847814402143D8
:101950000C07210E0E4C05786155047804F01F0524
:101960000124AC4005786D11AD0005F1E025C5F806
:10197000004109E0047804F01F050124AC40054D46
:101980000678761145F8264070BD00000CED00E0A9
:1019900000E400E080E100E002490143024A1160F6
:1019A000704700000000FA050CED00E070B500245F
:1019B0000EE00021204600F0C2F8002504E00020DF
:1019C00000F0FAF8681CC5B2802DF8DB601CC4B2C8
:1019D000082CEEDB70BD00001CB50121022000F0D8
:1019E000D7FD01208DF8040003208DF805000120AB
:1019F0008DF8060000208DF807004FF480700090ED
:101A000069460848FEF768FF4FF400700090694689
:101A10000448FEF761FF012000F0A2F8012000F069
:101A2000ADF81CBD0004024070B5054600240DE071
:101A30008021214101EA050000F0A0F8012000F01A
:101A40008FF8002000F08CF8601CC4B2082CEFDB8B
:101A5000012000F085F8002000F082F870BD10B57C
:101A6000012000F08BF8012000F07AF8002000F04F
:101A700085F8002000F074F810BD10B5002000F0CB
:101A80007DF8012000F06CF8012000F077F810BD1F
:101A900070B5002406E0002500E06D1CB5F57A7FE6
:101AA000FBD3641CB4F57A7FF5D3FFF795FFAE2026
:101AB00000F072F8D52000F06FF8802000F06CF88C
:101AC000A82000F069F83F2000F066F8D32000F06D
:101AD00063F8002000F060F8402000F05DF8A120DD
:101AE00000F05AF8C82000F057F8DA2000F054F857
:101AF000122000F051F8812000F04EF8CF2000F0C5
:101B00004BF8D92000F048F8F12000F045F8DB2030
:101B100000F042F8302000F03FF8A42000F03CF83C
:101B2000A62000F039F88D2000F036F8142000F0DF
:101B300033F8AF2000F030F8FFF738FF70BD70B514
:101B400005460C4645F0B00000F026F8102141EAA9
:101B5000141000F021F804F00F0000F01DF870BD23
:101B600010B5044622464FF480710348FEF72AFF61
:101B70000120FEF759FE10BD0004024010B50446D6
:101B800022464FF400710348FEF71CFF0120FEF7C8
:101B90004BFE10BD0004024010B50446FFF75FFF86
:101BA0007820FFF741FF0020FFF73EFF2046FFF7B8
:101BB0003BFFFFF762FF10BD10B50446FFF74FFF74
:101BC0007820FFF731FF4020FFF72EFF2046FFF778
:101BD0002BFFFFF752FF10BD70B52DED048B0446AF
:101BE0000D46B0EE408AF0EE608AB0EE419AF0EE1B
:101BF000619A84ED548AC4ED558A84ED569A2888FA
:101C0000A0F2DC5000EE100AB8EEC00A84ED5D0AC6
:101C10006888A0F5BD6000EE100AB8EEC00A84ED39
:101C20005E0AE888A0F2DC5000EE100AB8EEC00AA6
:101C300084ED5F0AA88800EE100AB8EE400A84ED31
:101C4000600A94ED5D1ADFED181A21EE211AF0EE0C
:101C5000410A94ED541AB0EE410AB0EE691A2046DA
:101C600000F026F884ED5A0A94ED5E1ADFED0E1AA4
:101C700021EE211AF0EE410A94ED551AB0EE410A18
:101C8000B0EE691A04F1380000F012F884ED5B0A36
:101C900094ED5F0ADFED050A20EE200A84ED5C0A70
:101CA000BDEC048B70BD00008FC2753DCDCC4C3EA9
:101CB00010B52DED048B0446F0EE408AB0EE609A2C
:101CC000B0EE418A39EE680A84ED050A94ED090AFE
:101CD000D4ED050A00EE880A84ED090A94ED090A9C
:101CE000D4ED0D0AB4EEE00AF1EE10FA04DD94ED45
:101CF0000D0A84ED090A10E094ED090AD4ED0D0AED
:101D0000F1EE600AB4EEE00AF1EE10FA05D294EDBD
:101D10000D0AB1EE400A84ED090A94ED050AD4EDEE
:101D2000060A30EE600AC0EE080AF0EE609AB0EEE5
:101D3000481AF3EE040A04F12C00B0EE690A01F02F
:101D4000A9FC84ED0A0A94ED050A84ED060A94EDD7
:101D5000000AD4ED050A20EE200AD4ED010A94ED24
:101D6000091A00EE810AD4ED020A94ED0A1A00EE77
:101D7000810A84ED040A94ED040AD4ED0C0AB4EE51
:101D8000E00AF1EE10FA04DD94ED0C0A84ED040A89
:101D900010E094ED040AD4ED0C0AF1EE600AB4EE02
:101DA000E00AF1EE10FA05D294ED0C0AB1EE400A09
:101DB00084ED040A94ED050A84ED060A94ED040A04
:101DC000BDEC048B10BD000080ED000AC0ED010ADF
:101DD00080ED021ADFED142AC0ED032ADFED122A8E
:101DE000C0ED042ADFED102AC0ED052ADFED0E2A32
:101DF000C0ED0A2ADFED0C2AC0ED0B2ADFED0A2A1E
:101E0000C0ED062ADFED082AC0ED072ADFED062A1D
:101E1000C0ED082ADFED042AC0ED092AC0ED0C1A36
:101E200080ED0D2A704700000000000010B52DED78
:101E3000028BFEF7DDFC04466C480068201A00EEB9
:101E4000100AB8EE400ADFED6A0A80EE201AB0EE02
:101E5000418A664804609FED670AB4EEC08AF1EEDD
:101E600010FA03DD9FED630AB0EE408A6248FEF788
:101E700049FF6248FEF756FEB0EE480A604A5F49E5
:101E80005D48FEF7B7FF5F4B5F4A60495C4800F072
:101E9000A9FA5E4890ED000ADFED5D0A20EE200A07
:101EA00080ED000A584890ED000ADFED590A20EE57
:101EB000200A80ED000A534890ED000ADFED540A35
:101EC00020EE200A80ED000A524890ED000A4F48AB
:101ED000D0ED000A30EEC00A80ED000A4D4890EDCA
:101EE000010A4948D0ED000A30EEC00A80ED000A30
:101EF000FEF77EFC044648480068201A00EE100AEF
:101F0000B8EE400ADFED3A0A80EE201AB0EE418AC0
:101F1000414804609FED370AB4EEC08AF1EE10FA32
:101F200003DD9FED340AB0EE408A3C48808840F2E1
:101F3000A461884202DB084638498880F0EE481ADE
:101F40003649304890ED001A2F48D0ED000A2F484E
:101F500090ED000A3248FFF73FFEFEF749FC0446C9
:101F600030480068201A00EE100AB8EE400ADFED93
:101F7000200A80EE201AB0EE418A2A4804609FEDC4
:101F80001D0AB4EEC08AF1EE10FA03DD9FED190AC6
:101F9000B0EE408AB0EE480A17492148FEF70AFE23
:101FA0001F4800F07DF91D48808840F24C4188426E
:101FB00013DC4FF47A71012000F0A4F84FF47A7129
:101FC000022000F09FF84FF47A71032000F09AF895
:101FD0004FF47A71042000F095F81348007810B19E
:101FE000002011490870BDEC028B10BD400000209C
:101FF000A037A04C0AD7233C140100201C0000206D
:10200000240000203C000020380000203400002084
:10201000E02E6542140000204400002090000020C3
:1020200020010020480000204F00002000B589B0AA
:102030000121084600F0ACFA0121022000F0B8FAB4
:10204000022206212D48FEF78FFC02208DF8200089
:102050004020079002208DF8230003208DF82100F6
:1020600007A92648FEF738FC0020ADF81800ADF8A7
:1020700012005320ADF810004FF6FF7005900020BD
:102080008DF81A0004A91E4800F038FE0020ADF8B3
:1020900004000F20ADF80C000020ADF80600ADF8EC
:1020A0000A000120ADF8080001A9154800F0A8FDBC
:1020B0005021134800F0E4FD0421114800F0E9FD2F
:1020C000012202210E4800F0D2FD4FF4A060FFF77C
:1020D00063FC1D208DF8000001208DF80300022014
:1020E0008DF801008DF802006846FFF719FC012108
:1020F000034800F068FD09B000BD00000000024088
:1021000000040040012806D0022807D0032808D088
:1021100004280CD108E0074A516309E0054A91639D
:1021200006E0044AD16303E0024A116400E000BF04
:1021300000BF7047000001407047000000B5014635
:102140009FED512ADFED501A9FED501ADFED4F0A37
:10215000B1EE020A0846FFF737FE9FED4B2ADFED8E
:102160004A1A9FED4A1ADFED490AB1EE020A01F15F
:102170003800FFF729FE9FED462ADFED431A9FED59
:10218000431ADFED420A9FED410A01F17000FFF7AB
:102190001BFE9FED3D2ADFED3F1A9FED3F1ADFED5D
:1021A0003B0A9FED3E0A01F1A800FFF70DFE9FEDEF
:1021B000362ADFED381A9FED381ADFED340A9FED2D
:1021C000370A01F1E000FFF7FFFD9FED312ADFED57
:1021D0002E1A9FED2E1ADFED2D0AB1EE040A01F53D
:1021E0008C70FFF7F1FD9FED290A81ED540A9FEDF8
:1021F000270A81ED550A9FED250A81ED560A9FEDCC
:10220000230A81ED570A9FED210A81ED580A9FEDBF
:102210001F0A81ED590A9FED1D0A81ED5D0A9FEDB0
:102220001B0A81ED5E0A9FED190A81ED5F0A9FEDA1
:10223000170A81ED600A9FED150A81ED610A9FED95
:10224000130A81ED620A9FED110A81ED630A9FED89
:102250000F0A81ED640A9FED0D0A81ED570A9FED8B
:102260000B0A81ED580A9FED090A81ED590A9FED8D
:10227000070A81ED5A0A9FED050A81ED5B0A9FED81
:10228000030A81ED5C0A00BD0000FA430000000073
:102290000000484300007A44B81E853D6666863FCC
:1022A0002DE9F041044694ED610ADFED4C0AB4EEED
:1022B000E00AF1EE10FA04DD9FED480A84ED610AB0
:1022C0000CE094ED610ADFED460AB4EEE00AF1EEAF
:1022D00010FA03D29FED420A84ED610A94ED620A7E
:1022E000DFED3E0AB4EEE00AF1EE10FA04DD9FEDF8
:1022F0003B0A84ED620A0CE094ED620ADFED380AD5
:10230000B4EEE00AF1EE10FA03D29FED350A84ED47
:10231000620A94ED630ADFED310AB4EEE00AF1EEF1
:1023200010FA04DD9FED2D0A84ED630A0CE094EDB4
:10233000630ADFED2B0AB4EEE00AF1EE10FA03D2E5
:102340009FED270A84ED630A94ED640ADFED230A0A
:10235000B4EEE00AF1EE10FA04DD9FED200A84ED00
:10236000640A0CE094ED640ADFED1D0AB4EEE00AA5
:10237000F1EE10FA03D29FED1A0A84ED640A94ED8F
:10238000610ABCEEC00A10EE100A85B294ED620A32
:10239000BCEEC00A10EE100A86B294ED630ABCEEE1
:1023A000C00A10EE100A87B294ED640ABCEEC00AAF
:1023B00010EE100A1FFA80F829460120FFF7A2FE4E
:1023C00031460220FFF79EFE39460320FFF79AFEB2
:1023D00041460420FFF796FEBDE8F0810000FA4474
:1023E00000007A442DE9F0472DED068B04460D469A
:1023F00016461F4694ED000AD4ED020A20EE200A8C
:10240000D4ED030A94ED011A00EEC10AF0EE000AC1
:1024100020EE200A10EE108A94ED000A20EE000A49
:10242000D4ED010A94ED011A00EEC10AD4ED020ABE
:1024300094ED021A00EEC10AD4ED030A94ED031ADA
:1024400000EE810A10EE109A4846FDF735FF41EC88
:10245000190B4046FDF730FF41EC1A0BB0EE491A5C
:10246000F0EE691AB0EE4A0AF0EE6A0A00F010FFC8
:10247000B0EE408AF0EE608A51EC180BFDF72FFFAA
:10248000306094ED010A20EE000AD4ED020A94EDCA
:10249000021A00EE810AF7EE000AB0EE001A41EED1
:1024A000400A10EE901A0846FDF706FF41EC190BA2
:1024B00094ED000AD4ED010A20EE200AD4ED020AC0
:1024C00094ED031A00EE810AF0EE000A20EE200AD5
:1024D00010EE101A0846FDF7EFFE41EC1A0BB0EEB5
:1024E000491AF0EE691AB0EE4A0AF0EE6A0A00F0F4
:1024F000CFFEB0EE408AF0EE608A51EC180BFDF78B
:10250000EEFE286094ED020A20EE000AD4ED030AE4
:1025100094ED031A00EE810AF7EE000AB0EE001AFD
:1025200041EE400A10EE901A0846FDF7C5FE41EC58
:10253000190B94ED000AD4ED030A20EE200AD4ED25
:10254000010A94ED021A00EE810AF0EE000A20EE74
:10255000200A10EE101A0846FDF7AEFE41EC1A0BE9
:10256000B0EE491AF0EE691AB0EE4A0AF0EE6A0AC5
:1025700000F08EFEB0EE408AF0EE608A51EC180B4F
:10258000FDF7ADFE3860BDEC068BBDE8F0870000BE
:1025900029B1064A12680243044B1A6004E0034A58
:1025A00012688243014B1A607047000030380240C5
:1025B00029B1064A12680243044B1A6004E0034A38
:1025C00012688243014B1A60704700004038024095
:1025D000F0B5002100220024022500260223324FFC
:1025E0003F6807F00C0121B1042905D0082937D133
:1025F00005E02E4F076036E02D4F076033E02A4F8D
:102600003F1F3F68C7F38056274F3F1F3F6807F0C3
:102610003F036EB1264FB7FBF3F7DFF88CC0ACF188
:10262000040CDCF800C0CCF3881C07FB0CF40CE0B5
:102630001E4FB7FBF3F7DFF870C0ACF1040CDCF809
:1026400000C0CCF3881C07FB0CF4174F3F1F3F68FA
:10265000C7F301477F1C7D00B4FBF5F7076002E07C
:10266000124F076000BF00BF0F4F3F6807F0F00137
:102670000909104F7A5C0768D74047600A4F3F68E6
:1026800007F4E051890A0B4F7A5C4768D7408760AE
:10269000054F3F6807F46041490B064F7A5C476875
:1026A000D740C760F0BD0000083802400024F400A5
:1026B00000127A000000002010B5044622464FF4B4
:1026C00080610348FEF77EF90120FEF7ADF810BDEA
:1026D0000004024010B508210448FEF768F90446DA
:1026E0000120FEF7A1F8204610BD000000040240C2
:1026F00010B50446224608210348FEF763F901207D
:10270000FEF792F810BD0000000402407047000080
:102710002248006840F08050204908602048006846
:1027200040F440401E4908601C48383800681B4986
:10273000383908600846006808600846006840F4B8
:10274000805008601748091F0860081F006840F0A3
:102750008070091F086000BF10484038006800F012
:1027600000700028F8D040F203700F4908600B4851
:102770003838006820F003000849383908600846F6
:10278000006840F00200086000BF04483838006864
:1027900000F00C000828F8D17047000040380240D3
:1027A0000070004010540107003C024010B515486D
:1027B000006840F47000134908601348006840F056
:1027C00001001149086000200F49083108600E48D7
:1027D00000680E4908400C4908600D48091D086052
:1027E000081F006820F48020091F086000200649A7
:1027F0000C310860FFF78CFF4FF000600149803911
:10280000086010BD88ED00E000380240FFFFF6FED2
:1028100010300024F0B50C46154600210022068C2D
:102820004FF6FE773E400684018B028C4FF60C7605
:1028300031407E1C06EA03162E4331434FF6F576EF
:10284000324044F00106324301830284F0BDF0B50A
:102850000C461546002100220026078C4FF6EF7C1F
:1028600007EA0C070784018B028C4FF6FF7707EA13
:10287000041640F6FF4739404FF6FF7707EA033763
:1028800039434FF6FF7707EA052739434FF65F775D
:102890003A4046F010073A4301830284F0BDF0B598
:1028A0000C461546002100220026078C4FF6FF6CCF
:1028B00007EA0C070784818B028C4FF6FF7707EA43
:1028C00004264FF60C7739404FF6FF7707EA0317D7
:1028D0002F4339434FF2FF573A4046F480773A434B
:1028E00081830284F0BDF0B50C461546002100221C
:1028F0000026078C4EF6FF7C07EA0C070784818BC5
:10290000028C4FF6FF7707EA043640F6FF4739405E
:102910004FF6FF7707EA052739434FF6FF7707EAB7
:102920000337394345F6FF773A4046F480573A4338
:1029300081830284F0BD00004948006840F0010036
:102940004749086053204749088544F61F60C8621C
:10295000002008860846008820F00100088008460C
:10296000008820F0100008800846008840F08000B1
:1029700008800846008B20F0030008830846008B7F
:1029800040F0080008830846008B20F070000883A0
:102990000846008B40F0600008830846008B20F456
:1029A000407008830846008B40F4006008830846A6
:1029B000008B20F4E04008830846008B40F4C040C0
:1029C00008830846808B20F0030088830846808BAC
:1029D00040F0080088830846808B20F070008883D0
:1029E0000846808B40F0600088830846808B20F486
:1029F000407088830846808B40F4006088830846D6
:102A0000808B20F4E04088830846808B40F4C040EF
:102A100088834FF47A7048638863C8630864084603
:102A2000008C42F2222188430E4908840846008C1B
:102A300041F2111108430B4908840A4844300088C8
:102A400040F40040A1F844000846808A40F00100AC
:102A500088820846008840F0010008807047000026
:102A6000443802400000014010B50121880700F001
:102A7000B6F8002837D01C480078401CC0B21A496C
:102A80000870142804DB0020087001201749087022
:102A900017480078401CC0B215490870052804DBAF
:102AA0000020087001201349087013480078401C6A
:102AB000C0B211490870142804DB002008700120FE
:102AC0000E4908700E480078401CC0B20C490870CE
:102AD000642804DB0020087001200A4908700121E5
:102AE000880700F06DF810BD510000204D00002057
:102AF000500000204C000020520000204E0000201A
:102B0000530000204F0000201FB501210846FFF7A9
:102B10004FFD40F2E73002905320ADF80400002052
:102B2000ADF80C00ADF8060001A94FF0804000F0B0
:102B3000E5F801221146900700F099F81C208DF865
:102B4000000001208DF8010002208DF80200012014
:102B50008DF803006846FEF7E3FE0121880700F0C8
:102B600032F81FBD10B50221114800F038F8C8B185
:102B70000F48343000680F4908800846008840F646
:102B8000340188420BDC0B4801880B48027800783E
:102B9000401C094B1870094820F8121002E0002070
:102BA000054908700221024800F00AF810BD000033
:102BB0000004004056000020580000209000002033
:102BC000CA430282704721B1028842F001020280AA
:102BD00004E002884FF6FE731A400280704730B559
:102BE0000246002000230024158A05EA0103958986
:102BF00005EA010413B10CB1012000E0002030BD52
:102C000070B505460C46208850B92389A288618892
:102C10002846FFF7FFFDE188284600F043F825E04D
:102C2000208804280AD12389A28861882846FFF7D2
:102C30000EFEE188284600F03EF817E020880828BC
:102C40000AD12389A28861882846FFF728FEE188F7
:102C5000284600F03DF809E02389A28861882846CB
:102C6000FFF741FEE188284600F03BF870BD1AB13D
:102C700083890B43838102E083898B43838170477F
:102C80000A46002101894FF68F73194011430181D3
:102C9000704702894FF6F8731A40028102890A438D
:102CA00002817047028B4FF6F3731A400283028B46
:102CB0000A4302837047028B4FF2FF331A400283AC
:102CC000028B4FF6FF7303EA01231A430283704716
:102CD000828B4FF6F3731A408283828B0A4382837E
:102CE0007047828B4FF2FF331A408283828B4FF6FC
:102CF000FF7303EA01231A4382837047002202888C
:102D0000184B98420ED0184B98420BD0B0F1804F20
:102D100008D0164B984205D0154B984202D0154B5F
:102D2000984204D14FF68F731A404B881A43124BC6
:102D3000984207D0114B984204D04FF6FF431A40F7
:102D40000B891A4302804B68C3620B880385054BCD
:102D5000984202D0044B984201D18B7A038601231A
:102D600083827047000001400004014000040040DD
:102D700000080040000C004000100040001400401B
:102D80000748008800F0200048B1054880880549C0
:102D900008700348008820F020000149088070472F
:102DA000001001401000002070B52DED068B054687
:102DB00000F0B6F85148808920F400504F498881CE
:102DC0000846808920F4004088810846808920F4E4
:102DD000805088810846808920F480608881084678
:102DE000808940F00C0088810846008A20F4405019
:102DF00008820846808900F4004001282CD128462A
:102E0000FDF74DFA41EC1A0B53EC1A2B9FED3C0BDE
:102E100051EC100BFDF7D4F941EC190BFDF75FFAFB
:102E200008EE100ABCEEC80A10EE100A36490880F7
:102E30000846008800EE100AB8EE400A78EE400A14
:102E4000B2EE001AB6EE000A00EE810ABCEEC00A2D
:102E500010EE100A84B22BE02846FDF720FA41EC70
:102E60001A0B53EC1A2B9FED290B51EC100BFDF7AD
:102E7000A7F941EC190BFDF732FA08EE100ABCEE87
:102E8000C80A10EE100A204908800846008800EEA3
:102E9000100AB8EE400A78EE400AB3EE001AB6EE19
:102EA000000A00EE810ABCEEC00A10EE100A84B2DD
:102EB0001548008844EA00101049088108468089B6
:102EC00040F0200088811348006840F4A060114958
:102ED00008601148006840F020004FF0E021C1F880
:102EE000040105210D4801700448808940F4005018
:102EF00002498881BDEC068B70BD000000100140C6
:102F000000000000F40664415400002000000000AE
:102F1000F40654410CED00E004E100E024E400E09C
:102F20001548006840F00200134908601248143048
:102F3000006840F010001049143108600F48006824
:102F400040F0EE400D4908600C482038006840F41D
:102F500020400A4920390860081D0068091D0860E2
:102F6000081D006840F47040091D0860081D0068D5
:102F7000091D0860704700003038024020040240FC
:102F800000BFFEE703B401984100009850EAC12059
:102F900018BF04204A0D18BF40F0010040F2FF7234
:102FA000B2EB515F08BF40F00200012808BF0520C6
:102FB00002B070470000000070B59B482DED020B79
:102FC0002DED068B079D25F00044A04218DC9748A4
:102FD000844202DC0AD1069840B19DED060BBDEC9F
:102FE000068B02B0BDE8704000F003BB002DCCBFE3
:102FF0009FED8F0B9FED900BBDEC068B02B070BD6B
:103000008F48A04215DD8F48A042D8BF4FF0FF3453
:1030100058DD9DED060B51EC100BFFF7B3FF0428B4
:1030200008BF00F0FDFA9DED060BBDEC068B02B06B
:1030300070BD9DED060B51EC100B00F01FFBCDE9B0
:10304000060181489FED828BA0423CDD8248A04270
:103050001FDD00249FED82AB9DED060B53EC1A2B78
:1030600051EC100BFDF7EBF99DED060B41EC190B44
:1030700053EC1A2B51EC100BFDF788FA53EC182B7C
:10308000FDF77EFA53EC192BFDF79AF8CDE906010E
:1030900049E09DED060B012453EC182B51EC100B6D
:1030A000FDF7CDF99DED060B41EC190B53EC182BF8
:1030B00051EC100BFDF764FA53EC192BFDF780F877
:1030C000CDE906012FE06848A0421FDD02249FEDF4
:1030D000689B9DED060B53EC192B51EC100BFDF783
:1030E00055FA53EC182BFDF7AAF99DED060B41ECB0
:1030F000180B53EC192B51EC100BFDF741FA53EC64
:10310000182BFDF75DF8CDE906010CE09DED060BEF
:10311000032453EC102B9FED580B51EC100BFDF7D3
:103120004FF8CDE906019DED060B53EC102B51EC49
:10313000100BFDF72BFA41EC180B53EC182BFDF795
:1031400025FA41EC190B4E480621B0EE490AF0EE83
:10315000690A784400F0D1F953EC182B51EC100BAC
:10316000FDF714FA41EC180B4648B0EE490AF0EEB0
:10317000690A0521784400F0C0F953EC192B51EC91
:10318000100BFDF703FA41EC100B51EC180B53EC4C
:10319000102B002C0EDAFDF752F99DED061B53ECB7
:1031A000112BFDF7F3F99DED061B53EC112BFDF7E9
:1031B000EAF935E0FDF743F99DED061B53EC112BC1
:1031C000FDF7E4F941EC100B2F48784400EBC40004
:1031D00090ED001B51EC100B53EC112BFDF7D0F9C7
:1031E0009DED061B53EC112BFDF7CAF941EC100BBA
:1031F0002648784400EBC40090ED001B51EC100B06
:1032000053EC112BFDF7BFF941EC100B002DA2BFC1
:10321000BDEC068B02B070BD51EC100B81F000418B
:1032200041EC100B01E70000000010440000F07FAB
:10323000182D4454FB21F93F182D4454FB21F9BFAC
:103240000000DC3F0000203E0000F33F00000000D3
:10325000000000000000F03F0000E63F000000001A
:10326000000000000000004000800340000000005B
:10327000000000000000F83F000000000000F0BF68
:1032800012060000C8050000520500000A050000F3
:1032900070B56B4E2DED040B2DED028B82B0DDF879
:1032A0001CC0DDE905235C422CF000411C4341EACF
:1032B000D474049D22F00040B44205D86C422C43E3
:1032C00040EAD474B4420BD99DED061B9DED040B6E
:1032D00002B0BDEC028B04B0BDE8704000F093B9C1
:1032E000ACF14054A4F17F641C430BD0022404EAE7
:1032F000AC7444EAD27405439FED538B9FED542B7D
:1033000007D015E09DED040B51EC100B00F0AEF969
:1033100042E0002C11BF012C9DED040B02B0BDEC6E
:10332000028B04BF04B070BD022C38D0032C3BD0FC
:103330000B439FED491B9FED4A0B0AD0B14218D1B8
:10334000B04209D121F0804120F0804007910590E2
:103350000FE0002A15DA10E0434B7B44002C08BF35
:1033600093ED000B0DD0012C10D0022C17D0032CA4
:103370001AD0B0421DD1002A03DAB0EE410AF0EEB5
:10338000610A02B0BDEC028B04B070BD93ED000B7E
:1033900051EC100B81F0004141EC100BF1E7B0EE65
:1033A000480AF0EE680AECE7B0EE420AF0EE620A74
:1033B000E7E7401A00153C28C8BF8DED000B19DC6B
:1033C000BCF1000FBEBF10F13C0F9FED290B8DED3E
:1033D000000B0FDB9DED060B53EC102B9DED040B4A
:1033E00051EC100BFCF7ECFE00F048F900F03EF950
:1033F000CDE90001002C08BF9DED000BC1D0012CD0
:1034000010D0022C9FED1C0B53EC102B9DED000BEC
:1034100051EC100B0DD0FDF7B3F853EC182BFDF762
:10342000AFF8B9E7019880F0004001909DED000BE6
:10343000A7E7FDF7A5F853EC182BFDF7A4F8ABE7C9
:103440000000F07F00000000182D4454FB210940CB
:10345000182D4454FB2109C0182D4454FB21F9BFF9
:10346000182D4454FB21F93F3A04000000000000ED
:103470000000000000000000075C143326A6A13CF9
:1034800000B52DED048BB0EE409AF0EE609A83B05B
:1034900051EC190BFDF7ECF841EC180B18EE100A83
:1034A00018EE901A8DED008B002818BF01200843FC
:1034B00020F00040C0F17F6000F1E040C00F14D068
:1034C00019EE101A19EE900A8DED009B002918BF15
:1034D0000121084320F00040C0F17F6000F1E0408E
:1034E000C00F04BF012000F0BBF8B0EE480A03B0E3
:1034F000F0EE680ABDEC048B00BD70B504462DEDFE
:10350000028B4D1E00EBC500B0EE408AF0EE608AE3
:1035100090ED000B35F0060017D053EC182B51EC52
:10352000100BFDF733F841EC100B6D1E04EBC500DA
:1035300090ED001B51EC100B53EC112BFCF77FFFAF
:1035400041EC100B35F00600E7D1022D36D0042DEA
:103550001CD0062D1CBFBDEC028B70BD53EC182B8C
:1035600051EC100BFDF712F894ED0A1B53EC112BE4
:10357000FCF765FF53EC182BFDF708F894ED081BDA
:1035800053EC112BFCF75BFF41EC100B53EC182BA9
:1035900051EC100BFCF7FAFF94ED061B53EC112BCA
:1035A000FCF74DFF53EC182BFCF7F0FF94ED040BE8
:1035B00053EC102BFCF743FF41EC100B53EC182B92
:1035C00051EC100BFCF7E2FF94ED021B53EC112BB6
:1035D000FCF735FF53EC182BFCF7D8FF94ED001BDC
:1035E00053EC112BFCF72BFFBDEC028B41EC100BC5
:1035F00070BD10B553EC102B51EC100BFCF71FFFF6
:1036000041EC100B10BD10B553EC112B51EC100B0D
:10361000FCF715FF41EC100B10BD0000000000008E
:103620009FED050B10B553EC102B51EC100BFCF774
:10363000ADFF41EC100B10BD0000000000000010B9
:1036400002E008C8121F08C1002AFAD1704770476B
:10365000002001E001C1121F002AFBD170470000C9
:1036600001490860704700008C00002010B541EC53
:10367000100BFFF7A1FC51EC100B10BD82B0CDE98F
:10368000000121F0004001909DED000B02B051ECD3
:10369000100B7047F0EE401A9FED0F0A20EE800AE3
:1036A000B7EE003AC3EE003AB0EE632A32EE010AFA
:1036B00082EE003AF0EE432A90ED000A20EE220A54
:1036C000B7EE003A33EE623A03EE210A80ED000ACB
:1036D00090ED000A70470000DB0FC940FDF75EF86F
:1036E00001E0FEF7A3FBFCE7E02E65420000803F0F
:1036F00000000000000000000000000000000000CA
:103700004FBB610567ACDD3F182D4454FB21E93FF9
:103710009BF681D20B73EF3F182D4454FB21F93FE8
:10372000E2652F227F2B7A3C075C143326A6813C6E
:10373000BDCBF07A8807703C075C143326A6913C19
:10374000C4EB98999999C9BF711623FEC671BCBF85
:103750006D9A74AFF2B0B3BF9AFDDE522DDEADBFED
:103760002F6C6A2C44B4A2BF0D5555555555D53F05
:10377000FF8300922449C23F6E204CC5CD45B73F20
:10378000513DD0A0660DB13FEB0D76244B7BA93F98
:1037900011DA22E33AAD903F000000000000000083
:1037A000C0370008000000209000000040360008EC
:1037B00050380008900000204006000050360008F5
:1037C00000000000010203040102030406070809C7
:1037D00000000000CDCC2CC0CDCCCCC0000000003F
:1037E000000000000000803F00000000000000001A
:1037F00000000000000000000000000000000000C9
:1038000000000000000000000000000000000000B8
:103810000000000000000000000000000000803FE9
:103820000000000000000000000000000000000098
:1038300000000000E3A573C04A0C82BE378941BF77
:103840000000000000000000000000000000000078
:040000050800018965
:00000001FF
