:020000040800F2
:10000000B046002089010008970100089901000806
:100010009B0100089D0100089F01000800000000EE
:10002000000000000000000000000000A101000826
:10003000A301000800000000B202000835290008F2
:10004000A5010008A5010008A5010008A5010008F8
:10005000A5010008A5010008A5010008A5010008E8
:10006000A5010008A5010008A5010008A5010008D8
:10007000A5010008A5010008A5010008A5010008C8
:10008000A5010008A5010008A5010008A5010008B8
:10009000A5010008A5010008A5010008A5010008A8
:1000A000A5010008A5010008A5010008A501000898
:1000B000A50100086D050008A5010008A5010008BC
:1000C000A5010008A5010008A5010008A501000878
:1000D000A5010008E1040008A5010008A501000829
:1000E000A5010008A5010008A5010008A501000858
:1000F000A5010008A5010008A5010008A501000848
:10010000A5010008A5010008A5010008A501000837
:10011000A5010008A5010008A5010008A501000827
:10012000A5010008A5010008A5010008A501000817
:10013000A5010008A5010008A5010008A501000807
:10014000A5010008A5010008A5010008A5010008F7
:10015000A5010008A5010008A5010008A5010008E7
:10016000A5010008A5010008A5010008A5010008D7
:10017000A5010008A5010008A5010008A5010008C7
:08018000A5010008A50100081B
:100188000A4880470A48804702F0DEFBFEE7FEE7A0
:10019800FEE7FEE7FEE7FEE7FEE7FEE7FEE700BF55
:1001A80004480549054A064B704700BFE4020008A9
:1001B800CD010008B0460020B0460020B04800201D
:1001C800B04200200C480D490D4AA2EB0102002A5A
:1001D80004D0A2F1040283588B50F8E709480A4971
:1001E800A1EB00014FF00003002903D0A1F10401A5
:1001F8004350F9E770470000F02C00080000002089
:100208000000002000000020B042002072B602B4B6
:10021800EFF3118180F31188BFF34F8FBFF36F8F16
:10022800084602BC62B6704772B680F31188BFF305
:100238004F8FBFF36F8F62B6704772B64E484F4903
:100248000A6802604E484F490A7802704E48D0F852
:10025800021041F0FF0181704C484FF0010101701C
:10026800002080F30988444801680A6882F30988F5
:10027800EFF3148141F0020181F31488BFF36F8F0B
:10028800BDE8F04FBDE80F5006BC82F3038862B6A4
:1002980008473F48016841F08051016070473C4879
:1002A800016841F0805101607047EFF3098020E94F
:1002B800F04F31490A6810602F4830490A680260D7
:1002C8002F4830490A78027002F0DEFA2A490A6893
:1002D8001268B2E8F04F82F3098870472D48016828
:1002E80041F4803141F480210160016811F4003F3C
:1002F800FBD029484FF00201016028484FF0000167
:1003080041F0080141F4A84141F4803141F48001F1
:1003180001602048016841F080710160016811F0B6
:10032800007FFBD01E48016821F0F00121F4E05164
:1003380021F4604141F480510160016841F00201FB
:100348000160016801F00C010829FAD115484FF045
:100358000501016014481549016015484FF0000176
:10036800016010484FF00701016007484FF0A06195
:10037800016062B67047000038390020303900202B
:100388004E3B00204D3B002020ED00E0413B00208B
:1003980004ED00E000380240003C0240043802400E
:1003A8000838024010E000E014E000E01F480100B7
:1003B80018E000E0F0B400EB4003234800EBC30072
:1003C80000F118063069F7687568874234D3B36856
:1003D800DC1B631E934215D33D4402EB070000BFAC
:1003E80011F8013B05F8013B013A05D011F8013B32
:1003F80005F8013B013AF3D1BFF35F8FF0600120AC
:10040800F0BC7047184490421AD307EB0500121B42
:1004180011F8013B00F8013B013CF9D1141C05D04F
:1004280011F8013B05F8013B013AF9D1BFF35F8FA1
:10043800F4600120F0BC7047C01B01389042CBD259
:100448000020F0BC70470000441000200348044B13
:10045800834202D0034B03B11847704700000020C5
:1004680000000020000000000548064B1B1AD90FA9
:1004780001EBA301491002D0034B03B118477047A1
:1004880000000020000000200000000010B5064C0D
:10049800237843B9FFF7DAFF044B13B10448AFF3ED
:1004A80000800123237010BD000000200000000020
:1004B800042A000808B5054B1BB105490548AFF3E8
:1004C8000080BDE80840FFF7CFBF00BF0000000074
:1004D80004000020042A000808B501F005F9094BBA
:1004E8001B8813F0200F09D0064A9188064B197013
:1004F80013889BB223F020039BB2138001F008F904
:1005080008BD00BF001001401C000020094A136B01
:1005180043F001031363084B1A6842F480621A60BF
:100528005A6822F020025A609A6842F440629A603F
:10053800704700BF0038024000000240034A138B96
:100548009BB243F020031383704700BF00000240B2
:10055800034A538B9BB243F020035383704700BF79
:100568000000024008B501F0BFF80221124800F06F
:100578002BF8E8B1104B5B6B9BB2104A138040F626
:10058800340293420DD80E4801784A1CD2B2027048
:100598000C4820F81130072A06D9094B00221A7096
:1005A80002E0074B00221A700221034800F018F8F5
:1005B80001F0AEF808BD00BF000400403200002082
:1005C8003000002020000020028A83890B4011425D
:1005D80002D01BB9002070470020704701207047E7
:1005E800C94389B20182704710B5154CA822002171
:1005F800204602F0EDF9032323616361114AA261E9
:10060800114BE3614FF4805323620023A3626362BA
:10061800E36222660D4A62661022A2662367E366D9
:100628006367BFF35F8F06E0C3F10F020849895C77
:10063800034AD15401330F2BF6D9BFF35F8F10BD96
:10064800441000201C2A0008440000203400002028
:10065800C02B00082DE9F047044688469146244BF4
:100668001B78532B18D104EB4402214B03EBC20334
:100678001F6FDD6EAF4212D80026ED1B4D4528BF17
:100688004D463DBB2EB104EB4404194B03EBC403A8
:100698001F673046BDE8F087FFF7A6FFE3E713467C
:1006A800134A02EBC30ADAF86860F61B4E4528BF06
:1006B8004E46DAF8641032463944404602F090F962
:1006C800B044A9EB06093744DAF86830BB42D4D104
:1006D8000027D2E704EB4402054B03EBC203596E33
:1006E8002A463944404602F07BF92E442F44C9E794
:1006F80044100020F8B507460E4615461C461F4B09
:100708001B78532B34D1EFF311824FF0200181F382
:100718001188002000F1010C0CEB4C0C174B03EB7B
:10072800CC0CDCF8043023B10130144B1B69834234
:10073800F0DC124B1B6983421DDD104B411C01EBA1
:10074800410C4FEACC0C43F80C7001EB410103EB70
:10075800C1014E6000EB400103EBC1031D620021A3
:1007680099625962DC62BFF35F8F82F31188F8BD2A
:10077800FFF73AFFC7E74FF0FF30F6E744100020D5
:100788002DE9F0410446884617461E46184B1B784B
:10079800532B26D1022C27D8EFF311804FF02001DC
:1007A80081F311887CB104EB4403114D05EBC30CB4
:1007B800CCF86080CCF86470CCF868600023CCF882
:1007C8007030CCF86C3004EB4404094B03EBC403E1
:1007D800069A5A67BFF35F8F80F311880020BDE83F
:1007E800F081FFF701FFD5E74FF0FF30F7E700BFD3
:1007F80044100020844631B100B58E460130802A6D
:1008080014D8734607E0002300F8013B7047013312
:1008180000F8012B0A46511E12B11A78002AF6D1A7
:10082800A3EB0E038CF800305DF804FB8022E8E7A8
:100838000730704710B584B001238DF80430194B88
:100848005B690DF1050204E063F07F0102F8011B0A
:10085800DB097F2BF8D802F8013B134B5C68114B7E
:10086800DB68E31A43F31B0304E063F07F0102F83B
:10087800011BDB097F2BF8D802F8013B01A9521AAA
:10088800084B5878FFF796FD30B1064BDC601A78B4
:10089800013A1A7004B010BD024A5369013353611A
:1008A800F8E700BFD4110020001000E02DE9F04760
:1008B80082B007460E4690461D46DFF85C9000233E
:1008C8004FF4805210494846FFF714FFC0B20F4C4E
:1008D800607020764FF0000ACDF800A008230C4A7B
:1008E8004946FFF74DFF4FF000532361094B5B6802
:1008F800E360C4F820806760A660656284F800A0A1
:1009080002B0BDE8F08700BF04120020D411002017
:10091800FC110020001000E0282A0008014B186193
:10092800704700BFD411002008B5034B1B6A13B1F0
:100938005B6803B1984708BDD4110020014B1B69BF
:10094800C01A7047D411002010B5064B1C6824B992
:1009580010BD98472469002CFAD0E368002BF8D121
:10096800F8E700BFD011002010B5EFF311844FF065
:10097800200181F311880B48FFF75AFF0A4B1B78B7
:10098800014604E063F07F0201F8012BDB097F2BAD
:10099800F8D801F8013B1B2200F0B0F884F3118865
:1009A80010BD00BFEC100020CF11002038B5294D34
:1009B80001232B70EFF311844FF0200181F311888C
:1009C8000A2225496878FFF7F5FC84F311880A2084
:1009D80000F05CF9EFF311844FF0200181F31188E6
:1009E8001E48FFF725FF6A68034604E062F07F01AE
:1009F80003F8011BD2097F2AF8D803F8012B154AFE
:100A0800926804E062F07F0103F8011BD2097F2A93
:100A1800F8D803F8012B0F4A126904E062F07F014D
:100A280003F8011BD2097F2AF8D8194601F8022BCE
:100A380000225A70182200F061F884F31188054BDF
:100A48005B6A03B1984700F07FF9FFF76DFFFFF786
:100A58008BFF38BDD4110020D42B0008EC100020E7
:100A680000B583B001220DF10701234B187EFFF773
:100A7800F1FD08B39DF80730072B0AD85AB282B3A4
:100A88005A1E062A2DD8DFE802F0151A1D20232643
:100A980029007F2B10D0802B23D101220DF10701D3
:100AA800154B187EFFF7D6FD30B19DF8070000F012
:100AB8007DFB01E0FFF77AFF03B05DF804FB00F06F
:100AC8005BF9F9E700F040F9F6E7FFF72DFFF3E7E8
:100AD80000F06EF9F0E7FFF747FFEDE7FFF734FFA7
:100AE800EAE713F0800FE7D001220DF10701024B6E
:100AF800187EFFF7AFFDDFE7D411002070B506467A
:100B08000C4615465E4B1B78012B04D0002B00F0D9
:100B18009680022B0ED01F2D13D8594BDB69EB4062
:100B280013F0010F40F08B80172D0AD8711E06F8BC
:100B3800015C17E0FFF77EFE514B1B78012B7ED13D
:100B4800E9E7A31B7F2B1ED9C3F3C71206F8012CB4
:100B5800B21E63F07F0306F8023C7E2D17D8511EA3
:100B680002F8015C474B5D68454BDB68EB1A23F0E4
:100B780070437F2B59D9224663F07F0002F8010B9E
:100B8800DB091446F5E7721E06F8013CE5E7B5F502
:100B9800804F09D2C5F3C71302F8013C911E65F0D6
:100BA8007F0502F8025CDDE7B5F5001F0ED2C5F33C
:100BB800873302F8013CEB0963F07F0302F8023C3B
:100BC800D11E65F07F0502F8035CCBE7B5F1805FC5
:100BD80013D2C5F3475302F8013CAB0B63F07F0314
:100BE80002F8023CEB0963F07F0302F8033C111F93
:100BF80065F07F0502F8045CB4E72B0F02F8013CAE
:100C08006B0D63F07F0302F8023CAB0B63F07F03CC
:100C180002F8033CEB0963F07F0302F8043C511F20
:100C280065F07F0502F8055C9CE704F8013B621A51
:100C3800134B5878FFF7BEFBA0B1114BDD60104B8A
:100C48001B7E114A03EB430102EBC101C96E03EBA2
:100C5800430302EBC302136F994202D0084B9B78FF
:100C68002BB170BD064A137801331370E7E7044CC3
:100C78000123A370FFF7F4FE0023A370F1E700BF80
:100C8800D4110020001000E04410002038B50446BC
:100C9800EFF311854FF0200181F311880448FFF725
:100CA800C7FD01462246FFF729FF85F3118838BDA5
:100CB800EC10002070B506460C46EFF311854FF096
:100CC800200181F311880A48FFF7B2FD014604E0CC
:100CD80064F07F0301F8013BE4097F2CF8D801F8A0
:100CE800014B3246FFF70AFF85F3118870BD00BF3C
:100CF800EC100020F8B506460F461446EFF31185B0
:100D08004FF0200181F311880E48FFF791FD01464D
:100D180004E067F07F0301F8013BFF097F2FF8D853
:100D280001F8017B04E064F07F0301F8013BE4096A
:100D38007F2CF8D801F8014B3246FFF7DFFE85F328
:100D48001188F8BDEC10002008B5094B1B6A43B1A7
:100D58001B6833B198470A4601460D20FFF7CAFFC2
:100D680008BD044B59680C20FFF7A4FFF8E700BF43
:100D7800D4110020001000E010B5EFF311844FF0FB
:100D8800200181F311880848FFF752FD074B1B78B3
:100D980013B984F3118810BD0B220146FFF7AEFE8C
:100DA800024B00221A70F4E7EC100020D411002046
:100DB80010B5EFF311844FF0200181F311881A4820
:100DC800FFF736FD194B5A68034604E062F07F01CD
:100DD80003F8011BD2097F2AF8D803F8012B134A1C
:100DE800926804E062F07F0103F8011BD2097F2AB0
:100DF800F8D803F8012B0D4A126904E062F07F016C
:100E080003F8011BD2097F2AF8D8194601F8022BEA
:100E180000225A701822FFF771FE84F31188034BE1
:100E28005B6A03B1984710BDEC100020D411002074
:100E380070B50646EFF311854FF0200181F3118854
:100E48002E48FFF7F5FC044633682D4A12699B1AB1
:100E580004E063F07F0200F8012BDB097F2BF8D850
:100E680000F8013BB36804E063F07F0200F8012B4F
:100E7800DB097F2BF8D800F8013B20227168FFF7C7
:100E8800B9FC014609222046FFF738FE33681C4AA0
:100E980012699B1A214604E063F07F0201F8012BD6
:100EA800DB097F2BF8D801F8013BF36804E063F015
:100EB8007F0201F8012BDB097F2BF8D801F8013BF1
:100EC800336904E063F07F0201F8012BDB097F2B13
:100ED800F8D801F8013B736904E063F07F0201F878
:100EE800012BDB097F2BF8D801F8013B152220469E
:100EF800FFF704FE85F3118870BD00BFEC100020D9
:100F0800D411002070B50546EFF311864FF020018B
:100F180081F311880748FFF78BFC04468022294695
:100F2800FFF768FC01460E222046FFF7E7FD86F32F
:100F3800118870BDEC10002010B5EFF311844FF04C
:100F4800200181F311880D48FFF772FC4FF0E02370
:100F5800D3F8043DC3F30803014604E063F07F02BD
:100F680001F8012BDB097F2BF8D801F8013B02229D
:100F7800FFF7C4FD84F3118810BD00BFEC100020FA
:100F880010B5EFF311844FF0200181F31188054863
:100F9800FFF74EFC01460322FFF7B0FD84F31188EA
:100FA80010BD00BFEC10002010B5EFF311844FF016
:100FB800200181F311880548FFF73AFC0146122207
:100FC800FFF79CFD84F3118810BD00BFEC100020D2
:100FD80070B505460C46EFF311864FF0200181F3FA
:100FE80011880F48FFF724FC014604E065F07F03F1
:100FF80001F8013BED097F2DF8D801F8015B04E009
:1010080064F07F0301F8013BE4097F2CF8D801F86C
:10101800014B1C22FFF772FD86F3118870BD00BFDB
:10102800EC10002038B50446EFF311854FF020018D
:1010380081F311880B48FFF7FBFB0B4B1B69E31A85
:10104800014604E063F07F0201F8012BDB097F2BE6
:10105800F8D801F8013B0822FFF750FD85F3118805
:1010680038BD00BFEC100020D411002038B504466C
:10107800EFF311854FF0200181F311880B48FFF73A
:10108800D7FB0B4B1B69E31A014604E063F07F02B0
:1010980001F8012BDB097F2BF8D801F8013B04226A
:1010A800FFF72CFD85F3118838BD00BFEC10002038
:1010B800D411002038B50446EFF311854FF0200114
:1010C80081F311880B48FFF7B3FB0B4B1B69E31A3D
:1010D800014604E063F07F0201F8012BDB097F2B56
:1010E800F8D801F8013B0622FFF708FD85F31188BF
:1010F80038BD00BFEC100020D411002070B50646A2
:101108000C46EFF311854FF0200181F31188104848
:10111800FFF78EFB0F4B1B69F31A014604E063F0DF
:101128007F0201F8012BDB097F2BF8D801F8013B7E
:1011380004E064F07F0301F8013BE4097F2CF8D850
:1011480001F8014B0722FFF7D9FC85F3118870BD20
:10115800EC100020D4110020F8B504460F46EFF338
:1011680011864FF0200181F311880E48FFF760FBCC
:1011780005460D4B1B69E31A04E063F07F0200F893
:10118800012BDB097F2BF8D800F8013B8022394678
:10119800FFF730FB014619222846FFF7AFFC86F31C
:1011A8001188F8BDEC100020D4110020F8B51D4BB3
:1011B8001C68ACB300230746984203D924690CB1D4
:1011C8000133F8E764B3EFF311864FF0200181F3A0
:1011D80011881548FFF72CFB054604E067F07F03EC
:1011E80000F8013BFF097F2FF8D800F8017BA368BE
:1011F80004E063F07F0200F8012BDB097F2BF8D8AD
:1012080000F8013B80222168FFF7F4FA0146162214
:101218002846FFF773FC86F31188E36803B1984703
:10122800F8BD00BFD0110020EC10002070B50546B5
:10123800EFF311864FF0200181F311880A48FFF778
:10124800F7FA044680222946FFF7D4FA014601231B
:1012580001F8023B002343701A222046FFF74EFC98
:1012680086F3118870BD00BFEC10002008B509484E
:10127800FFF748FE0848FFF745FE0848FFF742FE1B
:101288000748FFF73FFE0748FFF73CFE00F028F944
:1012980008BD00BF302A0008602A0008702A00082C
:1012A800802A0008982A000808B50548054B064A10
:1012B8000146FFF7FBFA4FF00050FFF72FFB08BD80
:1012C80000BD010575120008E02B000808B501F003
:1012D80069F94FF47A7303FB00F0002108BD0000A0
:1012E80008B5044BD3F8FC30834200D108BDFFF7A2
:1012F800E1FEFBE72C38002008B5054BD3F8FC309D
:10130800834200D108BD0421FFF7F8FEFAE700BFC9
:101318002C38002030B587B0054668460024009474
:101328000194029403940494059400950191029207
:1013380003930A9B0493FFF77BFD07B030BD0000C1
:1013480030B583B0124CD4F8FC4084421AD0114C0A
:1013580024681F2C18D8104D04EB840E05EB8E0C56
:1013680045F82E00CCF804108CF80820CCF80C3086
:10137800069DCCF810500134064D2C60069C009454
:10138800FFF7C8FF03B030BD0448FFF74FFFF9E788
:101398002C380020082800200C280020B02A00083B
:1013A80030B583B0154CD4F8FC4084421FD04FF0C0
:1013B800000C134C2468644509D90CEB8C0E114DB4
:1013C80055F82E50854202D00CF1010CF1E7644526
:1013D8000FD90C4D0CEB8C0405EB84046160227270
:1013E800E3602546069C2C610094FFF793FF03B049
:1013F80030BD069C0094FFF7A3FFF8E72C380020C7
:10140800082800200C28002070B582B000240DE0C8
:10141800094D04EB8403980029180A7ACB680E69F1
:10142800496828580096FFF775FF0134034B1B687D
:10143800A342EDD802B070BD0C2800200828002077
:1014480038B5002300E001330D4A14689C4206D9E0
:1014580003EB43020B4D55F822208242F3D19C4204
:1014680000D838BD074803EB430200EB8202516005
:1014780003EB430350F82300FFF76EFEF1E700BFCC
:10148800042200200822002070B506460C461546A6
:1014980011462046FFF760FE2046FFF74FFA014647
:1014A8003046FFF707FC0B4B1B687F2B0DD80A490A
:1014B80003EB430001EB800241F820405560002116
:1014C80091600133034A136070BD0448FFF7AEFE14
:1014D800FAE700BF0422002008220020002B0008A1
:1014E80038B5002400E001340C4B1B68A34213D923
:1014F80004EB44039A000A4B13449B68002BF2D177
:10150800074A04EB44018B00D5186968D058FFF7E7
:1015180023FE0123AB60E6E738BD00BF04220020AC
:10152800082200207047704700230B4A13600B4ABB
:1015380013700B4A13700B4A13700B4A13700B4A43
:1015480013600B4A13600B4A13600B4A13600B4A73
:1015580013700B4A13707047582F0020503B00201F
:101568004F3B0020403B0020413B0020AC3E002088
:101578003C3B0020583D00205C3D0020543D0020AD
:101588005C2F002000230A4A137004E0094A002156
:10159800D1540133DBB2072BF8D90023064A137064
:1015A800064A1370064A1360064A1360704700BF64
:1015B8004C3B0020443B00204E3B00204D3B00208C
:1015C8003039002038390020064B1B78064AD15C98
:1015D800CB00DBB20548415C525C1344044A1370EB
:1015E800704700BF4C3B0020E82B0008443B00201C
:1015F8004D3B002000B589B00C4A03230493002119
:10160800039180230293A2F5FE7301934FF6FF73B3
:1016180000933F23064800F025FF0DF11F020549FE
:101628003F2000F01DFE09B05DF804FB383B0020A8
:1016380085160008542B000800B589B00C4A03230E
:1016480004930021039180230293A2F5FE73019372
:101658004FF6FE7300933E23064800F003FF0DF19A
:101668001F0205493E2000F0FBFD09B05DF804FBB0
:10167800503D0020E51B0008642B000808B5FEF764
:10168800C5FD044A136801331360FEF7CDFD01F070
:10169800EAF8F4E73C3B002070B5154660B10C460B
:1016A800064661B10F4B1B7863B90378013B032BE6
:1016B8000BD90123137070BD04231370FBE70C23AF
:1016C8001370F8E712231370F5E7FEF79FFD7461B6
:1016D800FEF7AAFD21463046FFF7B2FE00232B7025
:1016E800E9E700BF503B002008B5074B1B78012BEA
:1016F80000D008BD054B1B78FF2B02D00133034AED
:101708001370FFF719FCF4E7413B0020503B002021
:101718001C4B1B78012B00D0704710B5FEF776FDE7
:101728000446194B1B7813B1013B174A1370164B2B
:101738001B7823BB154B1B78DBB9FFF745FF144B10
:101748001A78144B53F8223013490B60134909785F
:101758008A420BD01A6C01321A64114A1368013399
:101768001360FFF721FCFEF79AFD04E0FFF708FC81
:1017780001E0FFF705FC2046FEF756FD10BDFFF718
:10178800FFFBF8E7413B0020503B00204F3B002087
:101798004D3B00202C380020303900204E3B0020E3
:1017A800AC3E002008B50A4B1B78012B00D008BDC1
:1017B800FEF72CFD074B1B7833B9074B1B78FF2B23
:1017C80002D00133044A1370FEF72EFDEFE700BF85
:1017D800413B0020503B00204F3B002008B50A4BFE
:1017E8001B7803B108BDFFF7EFFE084B1B78084ACA
:1017F8001370084A52F82330074A1360074A1360E7
:10180800FEF71BFDEEE700BF413B00204D3B0020EB
:101818004E3B00202C380020303900203839002079
:1018280038B501F01FF8FEF7F1FC04462C4B1A6896
:1018380001321A6019682120FFF73CFA2046FEF7AA
:10184800F3FC284B1B78012B00D038BD264B1B78A6
:10185800012BFAD0022B04D033B1234B00221A708B
:1018680002E0214B01221A70204B1C680BE0002378
:1018780084F8393094F8383013F0080F1ED06469B2
:101888002846FEF7D1FC94F83A303F2BDDD0FEF71E
:10189800BDFC0546636B002BF1D0013B6363002B55
:1018A800EDD194F8383013F0370FE0D023F0370338
:1018B80084F83830012384F83930DBE794F83E3077
:1018C8000B4A11780B43137094F83C2009498B5C40
:1018D80094F83D0003438B542046FFF701FDCEE703
:1018E800582F0020413B0020403000202C39002098
:1018F8004C3B0020443B00207047000038B50346AD
:10190800134A1068C36190F83C201A44D17A90F8C1
:101918003D402143D1729A7A90F83E100A439A7258
:1019280090F83C400B4D2B5D90F83D2023EA0203D4
:101938002B55FFF7E1FC2B5D43B9054B1B6893F86A
:101948003E10054A137823EA0103137038BD00BF1F
:1019580038390020443B00204C3B002090F83C20C4
:101968000A44D37A90F83DC023EA0C03D3722BB90A
:101978008B7A90F83E2023EA02038B720023C3611E
:10198800704710B590F83CE090F83E4090F83DC0A4
:101998000A6801E051F8042F62B102EB0E00C37A25
:1019A80023EA0C03C372002BF4D1937A23EA0403CD
:1019B8009372EFE710BD0023837204E0C218002180
:1019C800D1720133DBB2072BF8D9704704E000234A
:1019D80000F8013B013989B20029F8D170470000AD
:1019E80010B54FF4FD611248FFF7F0FF4FF4807116
:1019F8001048FFF7EBFF00210BE04A1CD2B25C2035
:101A08000B4B00FB023400FB01335C610A4959654A
:101A180011461429F1D9064B5C2202FB0131002240
:101A28004A610548486505490A60054A136010BDC2
:101A3800443000202C380020742B00082C3900205A
:101A48003439002010B5F0211448FFF7BFFF0023F8
:101A580015E0591C89B201EB4102D0000F4A10442D
:101A680003EB430E4FEACE0C02EB0C0E002402F8F7
:101A78000C40CEF804000A4BCEF814300B46082B65
:101A8800E7D9064A03EB4300C1005418002050541C
:101A98006060034B6361034B1A6010BDB83D0020C2
:101AA800742B0008A83E002008B500F0D9FEFFF707
:101AB8003BFDFFF767FDFFF793FFFFF7C3FF00F05C
:101AC80081F900F0BDF900F0EFF9FFF793FDFFF79A
:101AD800B3FD00F055FE00F0C4FE00F071F908BD3A
:101AE80010B5FEF793FB0446104B1B7813B9104B47
:101AF8001B781BB12046FEF797FB10BDFFF764FD6E
:101B08000C4B1B780C4A52F823200C490A600C49EC
:101B180009788B42EED0136C01331364094A1368B9
:101B280001331360FEF7B5FBE4E700BF503B00202C
:101B38004F3B00204D3B00202C380020303900203E
:101B48004E3B0020AC3E002008B5104B1B78012B03
:101B580000D008BDFEF75AFB0D4B1B7893B90D4B0F
:101B68001B7863B1013BDBB20A4A137023B9FEF755
:101B78005BFBFFF7B5FFECE7FEF756FBE9E7FEF77F
:101B880053FBE6E7FEF750FBE3E700BF413B0020CD
:101B9800503B00204F3B002010B582B0002401E0EC
:101BA8000134E4B23F2C14D86946204600F0A0FB6B
:101BB8000028F5D1084B53F82430002BF0D0012B26
:101BC800EED09A68D96802EB8102DA64019A1A6544
:101BD800E6E702B010BD00BF2C38002010B502E0C7
:101BE800142000F0A7FC284B1B78002BF8D02749BD
:101BF8000A68274BA3FB02035B090B60632A0BD916
:101C0800FEF704FB214B1B68642202FB03F3214A05
:101C18001360FEF709FB13E01F4B00221A70FF2028
:101C280000F0ACFBECE71C4B00211970184BA3FB30
:101C380002325209154B1A6000F016FEFFF7ACFF8E
:101C4800012000F077FCFEF7E1FA124C0023236034
:101C5800FEF7EAFA0A2000F06DFCFEF7D7FA2368CF
:101C68000E4C2360FEF7E0FA2268084B1B68B2FBB3
:101C7800F3F3DBB2C3F16403D9B213F0800FD2D10E
:101C8800054B1970D8E700BF543D00205C3D00208B
:101C98001F85EB513C3B0020603D0020583D002053
:101CA8002DE9F0410546884617461E46FEF7AEFA6E
:101CB8003C4B1C68002C71D062691A60FEF7B4FABC
:101CC800C4F8008084F83A50002184F8381084F869
:101CD80039106163079B6360069BE360A760BDF8EA
:101CE80020302382668284F83F10EA0884F83C207A
:101CF80005F0070084F83B00012303FA02F284F898
:101D08003E20834084F83D30E16121626162E162F6
:101D1800A1622164A1646164E1642165224B636569
:101D2800002933D0204600F0A0FDFEF76FFA1F4BC4
:101D380043F82540FEF778FA204600F097FDFEF7B5
:101D480065FA05461A4B1B6863610022A26103B15C
:101D58009C61174B1C6094F83E30164A11780B436F
:101D6800137094F83C2014498B5C94F83D000343AD
:101D78008B54124A1378013313702046FFF7B0FAD8
:101D88002846FEF751FA0020BDE8F08101F116035C
:101D9800002244F823200131C9B2C1E7FEF744FA12
:101DA8004220F1E734390020742B00082C38002039
:101DB8002C3900204C3B0020443B0020403B0020B5
:101DC8007047000008B550211148FFF7FFFD0023B8
:101DD80010E05A1C92B20E4901EB02104FEA031CA4
:101DE80001EB03134FF0000E01F80CE058600949AD
:101DF800D9601346032BECD9054A180102EB0313EB
:101E08000021115459600349D960034B1A6008BD79
:101E1800683D0020742B0008643D00204268036878
:101E280032B1136003B15A6083680022DA627047E6
:101E3800C2685360002BF7D000225A60F4E7000014
:101E480008B578211548FFF7C1FD002313E003F119
:101E5800010C0CEB4C02D100104A881803EB430E1E
:101E68004FEACE01114448607346D9000A440C4B2E
:101E780053611FFA8CF3032BE9D9084903EB43009C
:101E8800C2000A440020506003EB4303DA000A440E
:101E9800034B5361034B196008BD00BFC42F0020DA
:101EA800742B00083C30002010B560210D48FFF766
:101EB8008DFD00230BE05A1C92B202EB4200C100D8
:101EC800084C214403EB4303D80021501346022B4E
:101ED800F1D9044A03EB4303D90000235350024BC2
:101EE8001A6010BD602F0020C02F002038B5104B9D
:101EF8001B78DBB90546FEF789F90E4B1C680CB157
:101F080062681A60FEF790F974B103232370258183
:101F180000236360084B63612046FFF74CFD62694C
:101F280021462E20FFF7B0FA204638BD0024FBE7F3
:101F3800503B0020A83E0020742B00082DE9F041FA
:101F4800144600283CD00E460546FEF7F7FC01462D
:101F580032463120FEF7CEFE2B78032B34D1344B9A
:101F68001B78BBBB334B1B78D3BBFEF74FF9074637
:101F78002B89DBBBDFF8C080D8F8003093F8382015
:101F880042F0010283F83820002283F839205E638A
:101F98002846FFF7B3FC3846FEF746F9FFF7A0FDE1
:101FA800FEF734F90646D8F8000090F839303BB30C
:101FB800022B39D02946FFF7D1FC0A23237021E0F0
:101FC80004231370BDE8F081012121703120FEF750
:101FD800FFFFF7E7022121703120FEF7F9FFF1E753
:101FE8000D2121703120FEF7F3FFEBE7013B2B8138
:101FF800FEF71AF9002121703120FEF7E9FFE1E729
:10200800002323700C4B1B68002283F8382083F8C8
:102018003920DA611A625A623046FEF705F92178EA
:102028003120FEF7D5FFCDE70E232370EAE700BF86
:10203800503B00204F3B002038390020F0B585B0D8
:102048003F2B4ED805460F4616461C46FEF7DEF8CF
:10205800254B1B784BB9254B53F824304BB1FEF771
:10206800E3F82825284605B0F0BDFEF7DDF83C2545
:10207800F8E71E4B012243F82420FEF7D5F8002389
:1020880032463946284600F009FC014600220292F1
:102098000192009213462046FFF702FE0546B8B9A2
:1020A800124B53F8240060B1FEF7BCFF0F4B53F8F6
:1020B8002400416D836890F83A20C4680094FFF7C3
:1020C8003FF90B4B1B78012BCCD1FFF709FDC9E772
:1020D800FEF79CF8054B002243F82420FEF7A4F8ED
:1020E800C0E72A25BEE700BF503B00202C3800205F
:1020F800413B00202DE9F0414E4B1D78002D40F06A
:10210800938004463F2800F091803E2802D9FF289A
:1021180040F08E80FEF77AF80646FF2C6CD02746F2
:10212800454B53F82440002C6BD0012C6ED094F80A
:102138003C20DFF8288118F8023094F83D1023EA93
:10214800010308F802302046FFF7D6F894F83C302F
:1021580018F8033033B994F83E10384A137823EA54
:1021680001031370E16911B12046FFF7F7FB216AFB
:1021780011B12046FFF705FCE06A08B1FFF74EFEF3
:102188000023636384F8383084F839302C4B1B788B
:10219800FF2B02D001332A4A13703046FEF744F869
:1021A800FFF7AAFBFEF732F80646254B1B7813B15A
:1021B800013B234A1370204600F064FB214A137840
:1021C800013B13701C4B002243F82720A36913B36B
:1021D80062695A61A36993611B4B1A6862611C604A
:1021E8001A4B63653046FEF71FF8194B1B78012B15
:1021F80017D02846BDE8F081164B1B6893F83A4083
:102208008DE73046FEF710F84325F2E73046FEF733
:102218000BF83D25EDE763699A6162690E4B1A6018
:10222800DAE7FFF75DFCE4E74025E2E73E25E0E773
:102238002A25DEE7503B00202C3800204C3B0020AC
:102248004F3B0020403B002034390020742B00080D
:10225800413B0020383900202C390020443B002025
:10226800F0B583B004460D4616463F2804D9FF282A
:1022780002D02A23137005E035B11A4B1B7833B10D
:102288001223337003B0F0BD0C233370FAE7FDF767
:10229800BDFF0746FF2C14D0134B53F82400A8B1F8
:1022A800012819D04565836890F83A20C1680091E3
:1022B8002946FFF775F83846FDF7B6FF0023337057
:1022C800E0E70A4B1B6893F83A40E5E73846FDF724
:1022D800ABFF43233370D5E73846FDF7A5FF43230B
:1022E8003370CFE7503B00202C38002038390020CD
:1022F80070B504460D463F2801D9FF2835D1002D79
:1023080035D000232B606B60FDF780FFFF2C0FD0CA
:10231800184B53F8243083B1012B12D01A8A12F0CB
:10232800010F12D0DE689C68FDF77EFF002212E0E4
:10233800114B1B6893F83A40EAE7FDF775FF432015
:1023480012E0FDF771FF43200EE0FDF76DFF452019
:102358000AE001321C46234653F8040B0028F8D043
:102368002A60B61A6E60002070BD2A20FCE709209A
:10237800FAE700BF2C3800203839002038B53F284C
:1023880049D004463E2801D9FF2846D1FDF73EFF33
:10239800FF2C2CD0224B1B6893F83A30A3422CD048
:1023A8000025204B53F824404CB3012C2BD094F833
:1023B8003C201D498B5C94F83DC023EA0C038B54E8
:1023C80033B994F83E10194A137823EA01031370BD
:1023D80094F8383043F0080384F83830FDF724FFC8
:1023E8002046FEF789FF012D11D0284638BD0C4B39
:1023F8001B6893F83A400125D3E70125D1E7FDF79B
:1024080013FF4825F1E7FDF70FFF4325EDE7FFF739
:1024180067FB0025E9E74725E7E72A25E5E700BF49
:10242800383900202C380020443B00204C3B002049
:1024380008B5044B186800F026FAFF20FFF75AFE8B
:1024480008BD00BF3839002012F0010F09D012F082
:10245800020F04D170470139002340F8043B0029DA
:10246800F9D170472DE9F04184B0BDF838803F2B91
:1024780058D805460F4616461C46FDF7C7FE2A4B98
:102488001B7853B9294B53F8243053B1FDF7CCFED0
:102498002825284604B0BDE8F081FDF7C5FE3C2597
:1024A800F7E7224B012243F82420FDF7BDFE424600
:1024B8000C990B98FFF7C8FF434632463946284621
:1024C80000F0ECF90146CDF808800D9B01930C9BB8
:1024D8000093BDF828300B9A2046FFF7E1FB05462C
:1024E800B8B9124B53F8240060B1FEF79BFD0F4BAF
:1024F80053F82400416D836890F83A20C46800942A
:10250800FEF71EFF0A4B1B78012BC2D1FFF7E8FA32
:10251800BFE7FDF77BFE054B002243F82420FDF7BB
:1025280083FEB6E72A25B4E7503B00202C3800206C
:10253800413B0020F8B5164B1B7823B90446154BD0
:102548001B7803B900B9F8BDFDF760FE0546124BCC
:10255800186890F83C60114FBB5D90F83D2023EA65
:102568000203BB55FEF7C8FEBB5D43B90A4B1B68A7
:1025780093F83E100A4A137823EA01031370064BB6
:102588001B685C632846FDF74FFEFFF7A9FADAE7F8
:10259800503B00204F3B002038390020443B0020AE
:1025A8004C3B002010B5FDF731FE034B1C68FDF7CE
:1025B8003BFE204610BD00BF582F0020032380F8A3
:1025C8002530012907D083693BBBC369194A1268C2
:1025D8001344436104E0C369164A12681344436113
:1025E8004269154BA3FB0213D11A03EB51039B0855
:1025F800C3EBC303D31A9BB2104A52F8331089B104
:102608000E4A42F83300C160086102EBC3039A889E
:1026180001329A80002303617047064A1268134406
:102628004361DDE742F83300C16002EBC3020123D6
:102638009380EFE7502F0020254992248C2A002010
:102648004269154BA3FB0213D11A03EB51039B08F4
:10265800C3EBC303D31A9BB2104A52F83320824209
:1026680011D00169C268CA6002B11161012280F803
:1026780025200022C2600261084A02EBC3039A883F
:10268800013A9A807047C268044941F83320002A09
:10269800ECD000211161E9E7254992248C2A002019
:1026A80000B589B00C4A03230493002103918023C9
:1026B8000293A2F5FE7301934FF6FD7300933D2339
:1026C8000648FFF7CFFE0DF11F0205493D20FFF731
:1026D800C7FD09B05DF804FBC02C0020ED260008FA
:1026E800782B000830B583B026E001212046FFF79B
:1026F80065FF18E02C46ECB1E56862691C4B1B6865
:102708009A42F7D12046FEF719F901464320FEF711
:10271800D1FA2046FFF794FF94F82430022BE4D036
:10272800022384F825306368002BE3D0A168204693
:102738009847DFE7FFF708FA0DF1070200210D4B74
:102748001868FFF7FBFBFFF72DF8094B1A680132F1
:102758001A60094BA3FB0213D11A03EB51039B0820
:10276800C3EBC303D31A9BB2044A52F83340C2E7FF
:10277800502F0020482F0020254992248C2A002021
:1027880070B582B04FF420712A48FFF71FF938213D
:102798002948FFF71BF9002317E0591C89B201EB00
:1027A8008100244A02EBC00003EB830E02EBCE0C3F
:1027B800642402F83E404FF0000E8CF825E0CCF877
:1027C8000C001E4BCCF820300B460E2BE5D9194ACD
:1027D80003EB830002EBC001642402F830400024BC
:1027E80081F82540CC600B4614491962144B1C60D3
:1027F800144B1C80144B10211980144B1A600120B3
:10280800FFF774FB124E30602046FFF76FFB114C48
:1028180020600DF107052A460F493068FEF73CFF96
:102828002A460E492068FEF737FFFFF739FF02B046
:1028380070BD00BFC82C00208C2A0020742B000813
:10284800502F0020542F0020562F0020C42C002089
:102858004C2F0020482F0020882B00089C2B0008B4
:1028680070477047704770477047704710B5044607
:10287800FEF758FE2046FEF7D5FB616D2046FEF7B1
:102888006BFC10BD7047704708B5FEF74CFE024B55
:102898001868FEF7EBFB08BD30390020131D23F044
:1028A80007034FF0807243F8042C43F8080C1E4AC3
:1028B80043F80C2C4FF0123243F8102C4FF003322F
:1028C80043F8142C4FF0023243F8182C4FF0013221
:1028D80043F81C2C43F8201C6FF0020243F8242C08
:1028E8004FF0113243F8282C4FF0103243F82C2CBB
:1028F8004FF0093243F8302C4FF0083243F8342CAB
:102908004FF0073243F8382C4FF0063243F83C2C8E
:102918004FF0053243F8402C4FF0043243F8442C72
:10292800A3F14400704700BF3924000810B5FDF733
:102938006DFC0446FEF7D8FE2046FDF775FCFEF751
:102948006FFFFEF7E5FE10BD00B583B0FDF7DEFDB5
:10295800FEF7AAFCFEF72AF8FFF7A6F804230E4AAA
:1029680000210E48FFF76AFB05230D4A00210D4898
:10297800FFF764FB0DF107020B490420FFF770FC19
:102988000DF1060209490520FFF76AFCFEF726FF4C
:1029980003B05DF804FB00BFAC420020B929000871
:1029A800AC400020C9290008B02B0008B82B00084B
:1029B80008B5FDF7C3FD4FF47A70FFF7BBFDF8E7E4
:1029C80008B5FDF7C5FD4FF4E160FFF7B3FDF8E783
:1029D80002440346934200D1704703F8011BF9E70C
:1029E8000A44914200F1FF3300D1704710B511F845
:1029F800014B03F8014F9142F9D110BDF8B500BF62
:102A0800F8BC08BC9E467047F8B500BFF8BC08BCC7
:042A18009E4670471F
:102A1C005465726D696E616C0000000053797356D9
:102A2C00696577004E3D41524D20436F7274657855
:102A3C002D4D2044656D6F2C443D436F7274657849
:102A4C002D4D204465766963652C4F3D75434F537E
:102A5C002D494900492331353D5379735469636BD2
:102A6C0000000000492331343D50656E645F5356BD
:102A7C0000000000492335333D5553415254315F1A
:102A8C0049525148616E646C6572000049233435BB
:102A9C003D54494D335F49525148616E646C6572C7
:102AAC000000000053595354454D564945573A20A0
:102ABC00436F756C64206E6F74207265636F726403
:102ACC00207461736B20696E666F726D6174696FCF
:102ADC006E2E204D6178696D756D206E756D626519
:102AEC0072206F66207461736B732072656163680A
:102AFC0065642E0053595354454D564945573A2059
:102B0C00436F756C64206E6F7420726567697374A3
:102B1C006572207265736F75726365206E616D6589
:102B2C002E204D6178696D756D206E756D626572C4
:102B3C00206F66207265736F7572636573207265A2
:102B4C0061636865642E000075432F4F532D49490E
:102B5C002049646C6500000075432F4F532D494983
:102B6C0020537461740000003F00000075432F4F28
:102B7C00532D494920546D720000000075432F4FAE
:102B8C00532D494920546D724C6F636B000000004B
:102B9C0075432F4F532D494920546D725369676EFD
:102BAC00616C00006C65646F6E0000006C65646F96
:102BBC00666600000000000000005454522052458C
:102BCC0047474553000000000000000000000000D3
:102BDC0000000000D51200081114000800000100CC
:102BEC0002000100030001000200010004000100CA
:102BFC0002000100030001000200010005000100B9
:102C0C0002000100030001000200010004000100A9
:102C1C000200010003000100020001000600010097
:102C2C000200010003000100020001000400010089
:102C3C000200010003000100020001000500010078
:102C4C000200010003000100020001000400010069
:102C5C000200010003000100020001000700010056
:102C6C000200010003000100020001000400010049
:102C7C000200010003000100020001000500010038
:102C8C000200010003000100020001000400010029
:102C9C000200010003000100020001000600010017
:102CAC000200010003000100020001000400010009
:102CBC0002000100030001000200010005000100F8
:102CCC0002000100030001000200010004000100E9
:0C2CDC00020001000300010002000100E2
:042CE800BD0400081F
:042CEC009504000843
:040000050800018965
:00000001FF
